S010000074776F5F435055302E7372656343
S315020000002040002281170002691600028B170002A7
S315020000108B1700028B1700028B1700028B17000248
S3150200002000000000000000000000000009050002B8
S315020000308B1700020000000021050002890500025C
S31502000040070B0002210A00028D0B0002DF0B0002E1
S309020000501040000054
S3150200005843F6C93043F2627243F6A763C0F2002040
S31502000068C0F20022C0F200230E2101F0B1FA00BF4D
S315020000787047022818BF704744F2641044F26021A0
S31502000088C2F20020C0F2002100F096BED4D4D4D425
S3150200009884B000F0CFF820200121002201F070FF81
S315020000A844F24C05C2F20025286088B144F20020C9
S315020000B8C0F200208768D0E900413A682046904796
S315020000C840B100BF00BF00BF00BFFDE700BF00BFD1
S315020000D800BFFDE740F2E91043F61971C0F20020AD
S315020000E8C0F200214FF48072002300264FF0030C61
S315020000F8CDE900C602F0F4FB4FF244004FF002715C
S31502000108C4F20000016006744AF2015101846420B7
S3150200011802F060FD44F254007B68C2F200200168D6
S315020001284A1C4FF08071026062F3172120469847F5
S3150200013844F250070DF10F04C2F200274FF0070BE5
S315020001484FF008084FF009094FF00B0A00BF00BF2D
S3150200015800F0A2F8387818B900F095F800B13870AE
S31502000168387800282DD08DF80F60387802380A289A
S3150200017834D8DFE800F006130C0E08152A10300AE8
S315020001882D00012010E005200EE00A200CE00320D5
S315020001980AE0042008E08DF80F8007E0022003E059
S315020001A8062000BF00BF00BF8DF80F00387840B1A7
S315020001B8286800220023214601F036FF012808BFDD
S315020001C83E700A2002F006FDC2E78DF80FB0EDE791
S315020001D88DF80FA0EAE78DF80F90E7E73E70E5E79E
S315020001E882B044F2002044F24C07C0F2002044F2E6
S315020001F85008C2F200270DF1070504688668C2F2A4
S3150200020800284FF0000900BF38684FF0FF32294630
S3150200021802F05EF80128F7D19DF80700726800041B
S3150200022800F1A0612046904708B12FF013C888F85C
S315020002380090E9E7B0B544F26C1444F2D011C2F268
S315020002480024C0F20021204600F07AFA44F25F0147
S315020002580122C2F200212046012500F0A4FB44F245
S3150200026860004FF48271C2F2002003F030FA44F2C1
S315020002785E0044F25D02C2F20020C2F200220021B0
S3150200028801701570B0BD44F25E010022C2F200216F
S3150200029808780A707047D4D444F26000C2F200208B
S315020002A8B0F80211B0F800218B1A1B0608BF704776
S315020002B8B0B544F25F0E44F25E0CC2F2002E002381
S315020002C8C2F2002C00BF00BF95B20C468D420BD07D
S315020002D8455D0132D4B2A0F800410B2D8EF80030EC
S315020002E802D86A1C8CF800200A1B12062246EBD199
S315020002F844F260004FF48271C2F2002003F0E7F97B
S31502000308B0BD44F25C020121C2F2002211700279E8
S31502000318022A17D0042A18BF7047816844F2580087
S31502000328C2F2002044F2600CC2F2002C0170BCF842
S315020003380231BCF80021581CC0B2904208D10146CD
S3150200034818460BE044F25D00C2F2002001707047C5
S315020003580CF80310ACF80201BCF8001180B5401A7B
S3150200036844F25A0E00F58073C2F2002E44F25F017F
S31502000378012203EB1360C2F2002120F0FF0C44F2C3
S315020003886C10C2F20020A3EB0C03AEF80030BDE8F5
S31502000398804000F008BB7047FFF7FDBF00BE7047FC
S315020003A8B0B544F2BC144FF0FF31C2F20024206803
S315020003B802F072F8012803D020680021FFF7EEFF49
S315020003C844F2C010C2F20020017801B1B0BD012189
S315020003D80170FFF7E1FF44F2C415C2F2002500BF1F
S315020003E8286801382860F1D02068002100220023FD
S315020003F801F01AFE0128F3D020680021FFF7CEFF8C
S31502000408EEE780B544F2C01244F2C410C2F20022EA
S31502000418C2F200200021117044F2C8120160C2F231
S3150200042800224FF48070012101F0DBFD44F2BC1179
S31502000438C2F20021086018B900200021FFF7AEFFBA
S3150200044800F020F802F04AFC002080BD44F2102C8D
S3150200045844F27023C2F2002CC2F20023C0F800C094
S315020004680B6080201060704744F2704C44F2D0430F
S31502000478C2F2002CC2F20023C0F800C00B60802032
S315020004881060704780B584B044F2C41044F20C235D
S31502000498C2F2002044F2D06C47F2282EC0F20023A2
S315020004A801684FF42062013101600320009040F296
S315020004B8F54043F6B241C0F20020C0F20021C2F272
S315020004C8002CC2F2002ECDE901EC02F004F944F246
S315020004D83071C2F20021086008B104B080BD002064
S315020004E8002104B0BDE88040FFF758BF10B50446A6
S315020004F8FFF756FF2046BDE81040FFF7C9BDD4D422
S315020005081EF0040F0CBFEFF30880EFF309800149D0
S3150200051808470000AF0500020F4B1968EFF309827E
S315020005281EF0100F08BF22ED108A22E9F04FEFF3F2
S315020005380B8342F8043D0A604FF0100080F31188DD
S31502000548BFF34F8FBFF36F8F02F076FB4FF00000B9
S3150200055880F3118800F002B820700022074801686B
S315020005680A6802CA81F30B88B2E8F04F1EF0100F30
S3150200057808BFB2EC108A82F30988704720700022FD
S3150200058810B51020EFF3118480F3118802F028FCCD
S3150200059830B14EF604504FF08051CEF200000160A1
S315020005A884F3118810BD806910F8020C022801D163
S315020005B8FFF7D4BF042838BF704780B543F27F706F
S315020005C843F6F63243F6BD03C0F20020C0F200221B
S315020005D8C0F200234FF47E7100F0FAFF283140F88A
S315020005E8481D40F211614FF0807CC0F2002122F0D2
S315020005F80102C1630264C0F844C06FF00201C0E997
S3150200060809137047D4D4D4D400BE00BF00BF00BFBC
S31502000618FEE7D4D4D4D4D4D44EF62250F021CEF266
S315020006280000017000F016F84EF63470CEF20000A3
S31502000638016841F04041016062B6BFF36F8FEFF384
S31502000648148C2CF0040C8CF31488BFF36F8F02DF22
S3150200065800BEFDE744F2B07044F6D351C2F2002060
S31502000668C1F262010068A0FB01014FF0FF3000EB06
S3150200067891110020B0EB116F18BF70474EF21002AD
S31502000688F023CEF2000251604EF62351CEF200015B
S315020006980B709060072010607047EFF311801021ED
S315020006A881F3118844F23471C2F200210A68002AE1
S315020006B802F101020A6018BF704744F23871C2F2A9
S315020006C8002108604EF60450CEF200000068C0050C
S315020006D800D1704780B543F27F7043F2A57243F6A4
S315020006E85433C0F20020C0F20022C0F2002340F2C6
S315020006F8A44100F06DFF44F23470C2F20020016892
S3150200070859B10139016018BF704744F23870C2F214
S315020007180020006880F31188704780B543F27F7025
S3150200072844F2390243F23C73C0F20020C0F20022BE
S31502000738C0F2002340F2AD4100F04AFFD4D4D4D42B
S315020007482DE9F0410D46097848F200020446C4F242
S31502000758350202EB01206062002020702562A27831
S315020007686969A162A969C4E90B0122F00300D5F8F7
S315020007781C80411CA170697811B940F00200A07072
S31502000788A97A95F90B20204600F068FA297995F995
S315020007980520204600F062FAA97995F90720204635
S315020007A800F05CFA297A95F90920204600F056FAF3
S315020007B80120EFF3108780F310884FF00041287864
S315020007C821FA00F043F20401C4F220010A6822EA7F
S315020007D80000086008681E20012100F0FEFE87F36B
S315020007E810884FF48061606A4FF480428160E8693C
S315020007F8E9786F78437802EA8131067867F3092146
S31502000808DA03437B92B206F0030703F001031144AD
S3150200081841EA4352636A42EA0762416802F5805234
S315020008285A61027802F0FE03022B07D14FF60471D1
S31502000838022ACFF6007108BF203100E00968626A11
S3150200084811610C22017BAB78877862F39F014FF422
S315020008584072022B08BF4FF48072002B07F0010387
S31502000868676A18BF114341EA0371F960626A002197
S3150200087891612A78092A04D8626A0023C1F61F738D
S315020008885362B0F80F20807B636A40EA022041F681
S315020008980172C0F21F02104018632046C4E904110F
S315020008A8C4E9061100F084F8606AB8F80A10102242
S315020008B8A181C9F607528266206A90F905304CF280
S315020008C80030C4F200005F0903F01F0650F8231037
S315020008D821F4803140F8231050F823104EF200110B
S315020008E80123CEF2000103FA06F601F5C072BFF340
S315020008F85F8F42F8276041F82760276A97F90B70DD
S3150200090850F8276026F4803640F8276050F82760AA
S315020009187E0907F01F07BFF35F8F03FA07F742F84E
S31502000928267041F82670276A97F9077050F82760EB
S3150200093826F4803640F8276050F827607E0907F0CB
S315020009481F07BFF35F8F03FA07F742F8267041F8CD
S315020009582670276A97F9097050F8276026F48036B8
S3150200096840F8276050F82700780907F01F07BFF3F9
S315020009785F8FBB4042F8203041F8203040F21141E7
S31502000988606AC0F201018160606A00BF00BF00BFF1
S31502000998017FC907FCD044F642110020C5F2433153
S315020009A86160BDE8F08103460020C3E9061270477C
S315020009B870B50446006AC5690020A060687C50B319
S315020009C84EF25400C4F20100017801F00F01022927
S315020009D801D801220BE0CA1E052A06D244F2742166
S315020009E8C0F2002151F8226003E00839102202FA07
S315020009F801F6407800F00F0000F09BFD44F2B07259
S31502000A08697CC2F20022B0FBF6F012685143B1FBD0
S31502000A18F0F00130A06070BDB0B54FF07041EFF351
S31502000A28038001EB00604CF200318015C4F200012C
S31502000A38425822F48032425044F294724158C2F229
S31502000A4800221458206A00690028606918D1C0B1CA
S31502000A58A07800F003000228206905D10088616A9F
S31502000A6820F4DC40486002E0616A00780871A078E8
S31502000A78226900F003016069401A6061114421612C
S31502000A88B8B9616A02228D68A06862F3155510B179
S31502000A9800F0E2FD616A8D60A06A00284FF000004E
S31502000AA8206106D0002180222046BDE8B04000F031
S31502000AB801B8B0BD2DE9F04385B08146C06A0DF193
S31502000AC8040830B10546C44695E8D8008CE8D80033
S31502000AD800E04046D9F820301B7881600360027135
S31502000AE8D9F83010C160D9F828108847D9F82C00EF
S31502000AF810B198E88E008EC005B0BDE8F08310B537
S31502000B0882B04FF07041EFF3038001EB00604CF2C4
S31502000B1800318015C4F20001425822F48032425054
S31502000B2844F294724158C2F200221458A07800F096
S31502000B380302606A022A03D101686FF35F2100E0AB
S31502000B480178E069019190B1A06901A902F0C3FD9B
S31502000B58A078D4E9061200F003000144101AC4E989
S31502000B6806100DD1A06A58B10021012202E0A06A3E
S31502000B7830B10422204602B0BDE81040FFF79ABF02
S31502000B8802B010BD10B54FF07041EFF3038001EBD0
S31502000B98006144F294728815C2F200224FF6EF748D
S31502000BA81058CFF6CF74426A936823409360826ADC
S31502000BB80C161AB100210222FFF77CFF4CF2003014
S31502000BC8C4F2000050F8241021F4803140F82410B1
S31502000BD850F8240010BD4FF07041EFF3038001EB8B
S31502000BE8006C44F294714FEAAC50C2F200210858E4
S31502000BF88178436A01F00301022903D119686FF368
S31502000C085F2100E0197870B59A6C20244FF0080E1F
S31502000C1804EAD24410260EEA126516EA126204EBB8
S31502000C280506324403D09E6C360458BF40329E6E87
S31502000C384FEA2C6446F0C8569E66836A0BB1FFF7E4
S31502000C4839FF4CF20030C4F2000050F8241021F4A7
S31502000C58803140F8241050F8240070BD10B54EF2C9
S31502000C68801C4FEA521ECEF2000C02F01F0301242A
S31502000C78002A04FA03F34CF82E304CF200334FEAFA
S31502000C880111BFF34F8FC4F20003BFF36F8F53F8FE
S31502000C98224024F4803443F8224053F8223004D404
S31502000CA80CEB020383F8801206E04EF6145402F0A7
S31502000CB80F03CEF20004195544F29471C2F20021D0
S31502000CC841F8220010BD024641608868C0231061BF
S31502000CD8C4F20203C868906100205061086803EBF9
S31502000CE8401040309060086803EB4010D06091F9DC
S31502000CF8040000282CD480B54EF2001C4979CEF2A5
S31502000D08000C00EB0C03090183F8001344F29471FA
S31502000D18C2F2002141F820204CF20031C4F200014F
S31502000D2851F8203023F4803341F8203051F820104E
S31502000D38410900F01F0001230CEB810E03FA00F0B3
S31502000D48BFF35F8FCEF880014CF82100BDE88040E2
S31502000D5845F243010020C5F24921116070478068B7
S31502000D680268920302D48160002070470C20704703
S31502000D788268002051607047844601610020CCE9F0
S31502000D88053270470146406890F9040000280FD4DE
S31502000D984EF2801C00F01F024009CEF2000C01231D
S31502000DA803FA02F24CF82020BFF34F8FBFF36F8F7E
S31502000DB8002000220A60704780B545F25422C5F227
S31502000DC84F020260084600F003F8002080BDD4D422
S31502000DD870B5044600F060F844F2907CEFF3108197
S31502000DE8C2F2002C012080F31088DCF8000038B922
S31502000DF840F614500022C4F24000027040220270EB
S31502000E08DCF800000130CCF8000081F31088208855
S31502000E1828B340F6000E0021C4F2400E00BF00BF00
S31502000E28606800EBC10250F831309288D8034FEA65
S31502000E381220D2B20BD50EEB801555F8226026F495
S31502000E48803645F8226023F4803645F822600EEB98
S31502000E588010013140F8223020888142E0D30120F7
S31502000E68EFF3108180F31088DCF8000020B1DCF87B
S31502000E7800000138CCF80000DCF8000038B940F66A
S31502000E8814500022C4F2400002708022027081F3DC
S31502000E98108870BDD4D4D4D42DE9F04F81B004465D
S31502000EA80088002865D04EF64C4B0025C4F2010B8B
S31502000EB84FF0010A00BF00BF44F29C2642F24008E6
S31502000EC80027C0F20026C4F2200800BF00BF00BFF8
S31502000ED8606836F8021B00EBC50082888A423FD159
S31502000EE800689BF8001000F0B8500AFA07F9B0F14A
S31502000EF8807F09EA010017D158B9012000F013FCD6
S31502000F089BF8000040EA09008BF80000012000F077
S31502000F18E3FB98F90000002822D498F8000040F074
S31502000F28800017E000BF00BF58B1012000F0FBFBAC
S31502000F389BF8000020EA09008BF80000012000F067
S31502000F48CBFB98F90000B0F1FF3F09DC98F80000E6
S31502000F5800F07F0088F80000C820012100F03DFB60
S31502000F68013708F10208032FB2D1208801358542DC
S31502000F78A2D301B0BDE8F08F4EF22401C4F20101FA
S31502000F888878098801F00F02A2F1080103293BD8E3
S31502000F98DFE801F0022C101E44F22001C2F2002101
S31502000FA851F820004AF6AB21CAF6AA21A0FB010194
S31502000FB8480830E044F22001C2F2002151F820002C
S31502000FC84AF6AB21CAF6AA21A0FB0101C80822E00B
S31502000FD844F22001C2F2002151F820004AF6AB2160
S31502000FE8CAF6AA21A0FB0101080914E044F220016D
S31502000FF8C2F2002151F820004AF6AB21CAF6AA210C
S31502001008A0FB0101880806E044F22001C2F2002191
S3150200101851F82000D04044F2B071C2F200210860B3
S315020010287047D4D4D4D4D4D42DE9F0410FF2E04099
S315020010384EF2FA38C4F201084AF20151CFF6FF71AC
S3150200104890ED001F44F220000231A8F80010C2F207
S3150200105800200FF2CC414EF6014680ED001F4EF6F7
S3150200106800474EF2140591ED001F48F2004140F682
S31502001078000280ED041F2030C1F2D77143F6000347
S31502001088C4F20106C4F20107C4F20105C2F6AF7240
S31502001098C1F69C430EC0FFF76FFF4FF650600A2158
S315020010A8CFF6FF703954092085F88E00387818B9BA
S315020010B83078800700F02682387840B901203870E7
S315020010C8C820012100F089FA38780128FCD10020CD
S315020010D8307038704AF201560020A87700BF00BF68
S315020010E895F828000007FBD542F602314EF6145051
S315020010F8C0F20101C5F8B41040F223416987002203
S3150200110885F836204FF60211C5F8981040F251417B
S315020011182987CEF200004EF20001BFF34F8FBFF3CC
S315020011286F8F0368CEF2010123F400330360C0F81F
S315020011383C22BFF34F8FBFF36F8F0A6822F44052E7
S315020011480A60BFF34F8FBFF36F8F2A7802F0F80257
S3150200115801322A7000BF00BF2A78D206FCD40A6878
S3150200116842F440520A60BFF34F8FBFF36F8F016894
S31502001178890312D4BFF34F8FBFF36F8F0021C0F8D4
S315020011883C12BFF34F8FBFF36F8F016841F40031F2
S315020011980160BFF34F8FBFF36F8F0020A87500BFA2
S315020011A895F828008006FBD54CF200070020C4F209
S315020011B8130738703878387838787868FA2807D074
S315020011C8FA20C1F6006000BF78607968FA29FBD177
S315020011D8B8687D2808D07D20CEF2001000BF00BF77
S315020011E8B860B9687D29FBD143F23340C3F22320A4
S315020011F8E86042F2201028820520A874FFF7BCFE98
S315020012081E200121012400F0E8F978686FF39F2077
S31502001218652828BF3C70FFF7AFFE42F200004FF484
S315020012282541C4F200000680BFF35F8F0472BFF344
S315020012385F8F018095F8C60040F0400085F8C60029
S3150200124895F9C600B0F1FF3FFADC032085F8C00025
S31502001258CA2085F8C60095F8C60000F0BF0085F8D2
S31502001268C60000BF00BF00BF95F9C6000028FBD420
S31502001278012085F83F00042085F82A00842085F895
S315020012882A0095F8600040F0400085F8600000BF2B
S3150200129895F96000B0F1FF3FFADC072085F858009F
S315020012A84A2085F860000A2085F8600000BF00BF62
S315020012B895F960000028FBD495F8620040F04000DA
S315020012C885F8620000BF00BF95F96200B0F1FF3FE2
S315020012D8FADC032085F85A00CA2085F8620095F8D8
S315020012E8620000F0BF0085F8620000BF00BF00BFC1
S315020012F895F962000028FBD495F8410040F04000B9
S3150200130885F8410000BF00BF95F94100B0F1FF3FE3
S31502001318FADC022085F84000CA2085F8410095F8D3
S31502001328410000F0BF0085F8410000BF00BF00BFC2
S3150200133895F941000028FBD495F8430040F0400097
S3150200134885F8430000BF00BF95F94300B0F1FF3F9F
S31502001358FADC002085F84200C72085F8430095F894
S31502001368430000F0BF0085F8430000BF00BF00BF7E
S3150200137895F943000028FBD495F8490040F040004F
S3150200138885F8490000BF00BF95F94900B0F1FF3F53
S31502001398FADC012085F84800CA2085F8490095F844
S315020013A8490000F0BF0085F8490000BF00BF00BF32
S315020013B895F949000028FBD495F8640040F04000EE
S315020013C885F8640000BF00BF95F96400B0F1FF3FDD
S315020013D8FADC052085F85C00CA2085F8640095F8D1
S315020013E8640000F0BF0085F8640000BF00BF00BFBC
S315020013F895F964000028FBD495F84B0040F04000AC
S3150200140885F84B0000BF00BF95F94B00B0F1FF3FCE
S31502001418FADC012085F84A00CA2085F84B0095F8BF
S315020014284B0000F0BF0085F84B0000BF00BF00BFAD
S3150200143895F94B000028FBD495F8630040F040006C
S3150200144885F8630000BF00BF95F96300B0F1FF3F5E
S31502001458FADC042085F85B00CA2085F8630095F853
S31502001468630000F0BF0085F8630000BF00BF00BF3D
S3150200147895F963000028FBD495F8470040F0400030
S3150200148885F8470000BF00BF95F94700B0F1FF3F56
S31502001498FADC022085F84600CA2085F8470095F846
S315020014A8470000F0BF0085F8470000BF00BF00BF35
S315020014B895F947000028FBD495F8C70040F040008C
S315020014C885F8C70000BF00BF95F9C700B0F1FF3F16
S315020014D8FADC022085F8C100CA2085F8C70095F80B
S315020014E8C70000F0BF0085F8C70000BF00BF00BFF5
S315020014F895F9C7000028FBD44FF42540A8F8000048
S31502001508BDE8F0814FF47A7000F012F8E2E500BF08
S31502001518006CDC0200127A000080000000366E01C0
S315020015280080000000CA9A3B0046C3235543DE13D7
S31502001538704744F22001C2F2002151F82000704798
S31502001548B0B542F22404C820C4F2200401210025C1
S31502001558257100F042F82570207808B12FF005C0F1
S31502001568207840F00200207020788007FCD4002002
S3150200157804F8020C00BF00BF14F8020C08B12FF0E1
S3150200158805C84FF0030E002004F11C0100BF00BF7E
S3150200159811F8102002F07F0201F8102000BF00BFE8
S315020015A811F91020002AFBD401300FF00FC80120D0
S315020015B800F0B9F84EF64C410120C4F201010022AE
S315020015C80A70BDE8B04000F087B87047D4D4D4D4C6
S315020015D800BE00BF00BF00BFFEE744F2B07241F290
S315020015E80023C2F20022C0F27A03484312689A42E2
S315020015F80FD344F23F21C0F20F0111444DF6836224
S31502001608C4F21B32A1FB0212910CA0FB0101C9B163
S315020016181BE04CF60021C3F69A31B1FBF2F148F60B
S315020016283812C0F24102904205D24FF47A72504300
S31502001638B0FBF1F006E0B0FBF1F0904205D24FF4B0
S315020016487A71484328B100F007B84FF0FF3000F02E
S3150200165803B87047D4D4D4D401380028FCD17047D3
S31502001668F0B581B04CF2001544F23C77C4F200059D
S315020016780024C2F200272868296A01EA000600BF88
S3150200168826FA04F0C00703D0396809B1204688470C
S3150200169801340437152CF3D12E6100BF00BF00BFF9
S315020016A8286A3042FCD101B0F0BDD4D4D4D4D4D403
S315020016B880B54FF0040E4CF2003044F26C21C4F2AD
S315020016C80000C0F2002100BF31F8022B02B102600D
S315020016D804300FF007C880BDEFF31081012282F3B0
S315020016E8108844F2A472C2F2002232F8103023B1F2
S315020016F832F81030013B22F8103032F810207AB94D
S315020017084EF2FA3244F2F04CC4F20102C0F2002C54
S3150200171813883CF8100043F4254323EA000010809E
S3150200172881F31088704710B5EFF31081012282F316
S31502001738108844F2A472C2F2002232F8103083B939
S315020017484EF2FA3E44F2F04CC4F2010EC0F2002CFC
S31502001758BEF800403CF81030234343F42543AEF864
S31502001768003032F81030013322F8103081F3108835
S3150200177810BDD4D4D4D4D4D400F006F8FEF741FE72
S31502001788FEE700BE7047D4D470B54EF6005540F257
S315020017980120CEF20005C0F20E004EF20006686184
S315020017A8CEF20106BFF34F8FBFF36F8F2968C1F3DD
S315020017B8035001285FEA1F9211F00F0F5FEA0F919B
S315020017C81142316811D102280FD241F0040030606B
S315020017D84EF20800BFF34F8FCEF20000BFF36F8FB1
S315020017E8016841F48031016002E021F004003060B2
S315020017F8BFF34F8FBFF36F8F4FF4700040F20001B3
S31502001808C5F888000020C0F20021A9600024FEF76E
S3150200181830FCFFF709FC4EF2FA304EF6B022C4F25B
S315020018280100C4F201024AF20251018014704FF417
S31502001838254101800120FEF71CFC40F22000C2F27D
S31502001848002080F30A883068800721D5A868B0F19D
S31502001858007F1DD130694FF40071C0F3C30072696D
S3150200186801FA00F3C2F3C30081400020DA08CB086C
S315020018780146064642F005C0E6E802010FF005C039
S315020018884FF0005243F005C0E2E802010FF005C02E
S31502001898002000F095F8FFF76FFBFFF751FE0320D3
S315020018A8FFF741FF4FF00E0E40F63050C4F24000EB
S315020018B820F8044B0FF005C04EF210140320C4F2B0
S315020018C80104FFF709FF0320FFF72DFF44F2040086
S315020018D80021C4F22000016041608160C1600320DA
S315020018E8FFF7FAFED4F8C802800714D42078A0B10C
S315020018F80120FFF718FF00BF94F9000010F1410F0D
S31502001908FADC0020207000BF20783F28FCD801208E
S31502001918FFF7E2FE01E0D4F8C802D4F8C80240078D
S3150200192815D42079A8B10120FFF7FDFE00BF00BF3C
S3150200193894F9040010F1410FFADC0020207100BF6F
S3150200194820793F28FCD80120FFF7C6FE01E0D4F82B
S31502001958C8020220FEF78DFB012000F031F847F29B
S315020019682424C2F20024204601F0C6FE204601F0D5
S31502001978D7FEBFF34F8FBFF36F8F0020C5F8500213
S3150200198844F24E5044F24E51C0F20020C0F20021F9
S31502001998BFF34F8F081ABFF36F8F8410012C08DB31
S315020019A844F24E55C0F2002555F8040B8047013C17
S315020019B8FAD1FFF77DFE0020BDE87040FFF705BEAD
S315020019C8F0B581B044F2C4250446C0F200252E685B
S315020019D876B16868071D00BF7879844204D157E951
S315020019E80101091A01F073FE013E07F10C07F3D152
S315020019F8AE6896B1E86800F1080500BF00BF00BFEF
S31502001A086879844205D155E902022968121A01F059
S31502001A1862FE013E05F11005F2D101B0F0BDD4D443
S31502001A28B0B500F10805092D06D310F0070104D058
S31502001A3809398D4240F2C380002500F0A0FF44F226
S31502001A48B470C2F20020016829B144F2B870C2F239
S31502001A580020026826E044F2C4730024C2F200237E
S31502001A68D91D5A0703F5205218BF21F0070344F27D
S31502001A78BC71C2F20021C1E9003422F00701A1F1CA
S31502001A880802026041E90244D21A5A6001681960E2
S31502001A9846F6C47044F2B873C2F20020C2F20023BA
S31502001AA802601A60012D71DB95426FD844F2BC7050
S31502001AB844F2C47CC2F20020C2F2002C02686245DB
S31502001AC8C0F0918042F2FF706044824200F28B803D
S31502001AD85068A84214D2106890B142F2FF730CEB18
S31502001AE8030400BF00BF00BF60456DD3134602461C
S31502001AF8A04269D85068A84206D2106820B1F3E716
S31502001B0844F2BC73C2F200238A423FD0186800F13D
S31502001B180804644576D342F2FF706044844271D861
S31502001B28106818605168A9427CD3481B11280DD346
S31502001B3802EB050C5FEA4C7140F08480CCF8040095
S31502001B48556018685051C3F800C0516844F2B87518
S31502001B5846F6C47CC2F20025C2F2002C2B68DCF8D9
S31502001B6800005B1A2B60834241F0004038BFCCF874
S31502001B7800300021C2E9001046F6C870C2F2002001
S31502001B8801680131016000F057FF04E000F054FFDC
S31502001B98FEF75EFA0024600704BF2046B0BD43F68E
S31502001BA8084043F6381243F68D23C0F20020C0F2ED
S31502001BB80022C0F2002340F25711FFF709FD20F078
S31502001BC8070000F1100538E743F6084043F63812D5
S31502001BD843F62373C0F20020C0F20022C0F20023AB
S31502001BE8FB21FFF7F5FC43F6084043F6381243F6A5
S31502001BF82373C0F20020C0F20022C0F20023F521AE
S31502001C08FFF7E6FC43F6084043F6381243F67B1321
S31502001C18C0F20020C0F20022C0F2002340F20511F1
S31502001C28FFF7D6FC43F6084043F6381243F641035B
S31502001C38C0F20020C0F20022C0F2002340F20D11C9
S31502001C48FFF7C6FC43F6084043F6381243F6454307
S31502001C58C0F20020C0F20022C0F200234FF48B71BA
S31502001C68FFF7B6FCD4D4D4D470B5002841D044F2D8
S31502001C78C476A0F10805C2F200260446B54254D33A
S31502001C8842F2FF70304485424FD854F8040C0028BB
S31502001C985BD52968002968D120F0004044F8040C75
S31502001CA800F06DFE44F2B87044F2BC73C2F2002032
S31502001CB854F8041CC2F2002302680A4402601A4657
S31502001CC810461268AA42FBD3984206D0B0425CD3A9
S31502001CD842F2FF733344984257D84368C618AE4255
S31502001CE802D11944054641606B18934202D0134645
S31502001CF80CE070BD44F2B473C2F200231B689A4228
S31502001D0804D052681144696001680B68A8422B60C6
S31502001D1818BF056046F6CC70C2F200200168013190
S31502001D280160BDE8704000F087BE43F6084043F6FE
S31502001D38A05243F69473C0F20020C0F20022C0F209
S31502001D4800234FF4B571FFF743FC43F6084043F608
S31502001D58A05243F6BD43C0F20020C0F20022C0F2F0
S31502001D68002340F26B11FFF733FC43F6084043F6B3
S31502001D78A05244F24B03C0F20020C0F20022C0F285
S31502001D8800234FF4B671FFF723FC43F6084043F6E7
S31502001D98451244F27103C0F20020C0F20022C0F2DA
S31502001DA800234FF4FD71FFF713FC01464FF0FF3293
S31502001DB841F8082F0022C0E90311C0E90021704743
S31502001DC8002101617047D4D480B5D1F800C01CF156
S31502001DD8010207D000F10802964652681368634565
S31502001DE8FAD903E0D0F810E0DEF804204A609160E0
S31502001DF8C1F808E0CEF804100861016801310160F3
S31502001E0880BDD0E901230169936042685A604A6835
S31502001E18824201D182684A6000220261086801385A
S31502001E280860704770B500284BD00446C06BC0B333
S31502001E380E46216CA0FB010199BBFEF72EFCD4E9E4
S31502001E480F010025226801FB00230138A56300FB68
S31502001E580120C4E90123E060FF2084F8440084F8E5
S31502001E68450004F110004EB1FFF79FFF04F124006C
S31502001E78FFF79BFFFEF73FFC012070BD01680029B2
S31502001E88F8D001F0ECF80028F4D04EF604504FF0E2
S31502001E988051CEF200000160BFF34F8FBFF36F8F00
S31502001EA8E8E743F6755044F21E0243F6A963C0F208
S31502001EB80020C0F20022C0F200234FF4B671FFF7E9
S31502001EC887FB43F6755044F21E0243F69463C0F24A
S31502001ED80020C0F20022C0F2002340F23711FFF7B9
S31502001EE877FB10B582B05BB3D0B11C4601B9BAB95B
S31502001EF801B1AAB148230193019B482B30D1019B1A
S31502001F08002954EA0282C4E90F010121204601236D
S31502001F1884F846302260FFF785FF204602B010BDDE
S31502001F2843F6755043F6DC3243F61B63C0F20020D3
S31502001F38C0F20022C0F200234FF4D871FFF748FB23
S31502001F4843F6755043F6DC3243F6EE13C0F2002030
S31502001F58C0F20022C0F200234FF4C271FFF738FB29
S31502001F6843F6755043F6DC3243F69A33C0F2002044
S31502001F78C0F20022C0F200234FF4CB71FFF728FB10
S31502001F8870B5F0B104460D46A0FB0101C9B905FBBF
S31502001F9804F010F1490F14D84830FFF741FD064600
S31502001FA868B1002086F846003046002D18BF483032
S31502001FB8306001213046C6E90F45FFF733FF304648
S31502001FC870BD43F6755043F6FC1243F61B63C0F226
S31502001FD80020C0F20022C0F2002340F22A21FFF7B5
S31502001FE8F7FAB0B582B060B10D46814209D81446F7
S31502001FF8002100222346FFF774FFA563204602B09C
S31502002008B0BD43F6755043F6305243F61023C0F27C
S315020020180020C0F20022C0F200234FF45E71FFF7DF
S31502002028D7FAD4D4D4D4D4D42DE9F04F85B0002825
S31502002038049200F0A18004469946154619B9206C07
S31502002048002840F0C980B9F1020F03D1E06B0128DC
S3150200205840F0B280019101F0EEF810B9002D40F07F
S315020020689B80FEF71AFBB9F1020FA06B5DD0E16BFC
S3150200207888425AD304F11007012002AE4FF0000B32
S3150200208804AD00BF00BF00BF0499002968D0C0078D
S3150200209802D0304601F06BF8FEF72DFB00F06FFC1C
S315020020A8FEF7FBFA94F84400FF2808BF84F844B008
S315020020B894F84500FF2808BF84F845B0FEF71BFBD5
S315020020C83046294601F060F800284CD1FEF7E5FAB9
S315020020D8D4F838A0D4F83C80FEF70DFBC24517D1D8
S315020020E80499384600F05EFF204600F0B5F800F085
S315020020F8A3FC90B94EF604504FF08051CEF2000080
S315020021080160BFF34F8FBFF36F8F06E000BF00BFBA
S31502002118204600F0A1F800F08FFCFEF7BEFAA06B8D
S31502002128E16B88424FF00000AED2204601994A463A
S3150200213800F062F854F8240F70B1204600F08FFFC1
S3150200214850B14EF604504FF08051CEF200000160B5
S31502002158BFF34F8FBFF36F8FFEF7CDFA012008E06A
S31502002168FEF7C9FA04E0204600F076F800F064FCAF
S31502002178002005B0BDE8F08F43F6755043F6D3024A
S3150200218843F69463C0F20020C0F20022C0F2002394
S3150200219840F2B631FFF71CFA43F6755043F6D302FE
S315020021A843F6E503C0F20020C0F20022C0F2002383
S315020021B840F2BB31FFF70CFA43F6755043F6D302E9
S315020021C843F61823C0F20020C0F20022C0F2002310
S315020021D84FF46E71FFF7FCF943F6755043F6D302D6
S315020021E844F22513C0F20020C0F20022C0F20023F6
S315020021F840F2B731FFF7ECF970B5866B036C04460B
S315020022082BB31546B2B1E0681A4601F064FA2168A2
S31502002218E268206C121AE2608A4203D24042A1683E
S315020022280844E060022D5FEA1F90002E5FEA0080F4
S31502002238361A0CE060681A4601F04DFAD4E9010133
S31502002248226C10446060884201D320686060701C6A
S31502002258A06370BDD4D4D4D4F0B581B00446FEF7D9
S315020022681CFA94F94560012E0EDB04F1240500BF21
S31502002278286848B1284600F0F2FE08B100F0D4FFFB
S3150200228870B2013E0128F3DCFF2684F84560FEF7AA
S3150200229832FAFEF702FA94F94470012F10DB04F1C0
S315020022A8100500BF00BF00BF286848B1284600F0E5
S315020022B8D6FE08B100F0B8FF78B2013F0128F3DC78
S315020022C884F8446001B0BDE8F040FEF714BAD4D4ED
S315020022D82DE9F04F83B00028029200F0AA80044646
S315020022E81646894619B9206C002840F0C28000F0CB
S315020022F8A2FF10B9002E40F0AC80FEF7CEF9D4F852
S3150200230838A0BAF1000F29D0226C52B1D4E90201E1
S315020023181144E160814201D32168E160484601F037
S31502002328DAF954F8100F0028AAF10100A0620ED0BB
S31502002338204600F094FE50B14EF604504FF08051FC
S31502002348CEF200000160BFF34F8FBFF36F8F0124F7
S31502002358FEF7D1F9204603B0BDE8F08F04F1240850
S3150200236801206F464FF0000B02AE00BF00BF00BF50
S315020023780299002959D0C00702D0384600F0F7FE64
S31502002388FEF7B9F900F0FBFAFEF787F994F844006C
S31502002398FF2808BF84F844B094F84500FF2808BF10
S315020023A884F845B0FEF7A7F93846314600F0ECFE48
S315020023B870B12046FFF750FF00F03EFBFEF76DF9BD
S315020023C8A56BFEF798F995B326E000BF00BF00BFDC
S315020023D8FEF763F9A56BFEF78EF92DB12046FFF7D6
S315020023E83BFF00F029FB17E00299404600F0DAFDB0
S315020023F82046FFF731FF00F01FFB68B94EF604507E
S315020024084FF08051CEF200000160BFF34F8FBFF349
S315020024186F8F00BF00BF00BFFEF73FF9D4F838A0A0
S315020024280020BAF1000FA3D06EE7002490E700243B
S3150200243890E743F6755043F6545243F66013C0F2DA
S315020024480020C0F20022C0F2002340F2E951FFF751
S31502002458BFF843F6755043F6545243F6E503C0F205
S315020024680020C0F20022C0F2002340F2F251FFF728
S31502002478AFF843F6755043F6545243F62663C0F254
S315020024880020C0F20022C0F2002340F2ED51FFF70D
S315020024989FF8D4D4D4D4D4D42DE9F04F83B00028ED
S315020024A8029100F090800446006C002840F09B8060
S315020024B80D4600F0C0FE10B9002D40F0A480FEF7CC
S315020024C8ECF8A06BD0B154F8101F0138A06271B1B4
S315020024D8204600F0C4FD50B14EF604504FF080512C
S315020024E8CEF200000160BFF34F8FBFF36F8F012456
S315020024F8FEF701F9204603B0BDE8F08F4EF60459FF
S3150200250804F1240801216E464FF0000B02AFCEF209
S3150200251800094FF0805A00BF029800284FD0C8071A
S3150200252802D0304600F023FEFEF7E5F800F027FA5F
S31502002538FEF7B3F894F84400FF2808BF84F844B0BD
S3150200254894F84500FF2808BF84F845B0FEF7D3F88B
S315020025583046394600F018FE70B12046FFF77CFE79
S3150200256800F06AFAFEF799F8A56BFEF7C4F845B3C8
S315020025781EE000BF00BF00BFFEF78FF8A56BFEF78F
S31502002588BAF82DB12046FFF767FE00F055FA0FE0BC
S315020025980299404600F006FD2046FFF75DFE00F070
S315020025A84BFA28B9C9F800A0BFF34F8FBFF36F8F54
S315020025B8FEF773F8A06B00210028ADD083E700244C
S315020025C896E7002496E743F6755043F6B53243F686
S315020025D86013C0F20020C0F20022C0F2002340F2CB
S315020025E88261FEF7F5FF43F6755043F6B53244F2BB
S315020025F8E803C0F20020C0F20022C0F2002340F233
S315020026088661FEF7E5FF43F6755043F6B53243F6A3
S31502002618E503C0F20020C0F20022C0F2002340F215
S315020026288B61FEF7D5FFD4D410B508B3D9B146F6F7
S31502002638D0724FF0000C0A23C2F200224FF0000EAD
S315020026485468A04210D0BEF1000F03D11468002CC2
S3150200265852EA0C8E013B02F10802F1D1BEF1000FDB
S3150200266818BFCEE9001010BD9646CEE9001010BD7F
S3150200267843F6755043F24E7243F6E363C0F2002006
S31502002688C0F20022C0F2002340F6C931FEF7A0FFCD
S3150200269870B515460E460446FDF7FFFF94F844004A
S315020026A8FF2802D1002084F8440094F84500FF2848
S315020026B802D1002084F84500FEF71DF8A06B28B960
S315020026C804F1240031462A4600F08DFC2046BDE876
S315020026D87040FFF7C1BD2DE9F04786B0DDF83C90A2
S315020026E80746B9F1000F4FF00000049026D0109C5F
S315020026F8A4B360200590059860283FD10E46059838
S315020027086021204698461546DDF838A000F0DFFF1E
S31502002718C4F83090022084F85D0004A8CDE900A030
S31502002728384631462A464346029400F099FD204629
S3150200273800F036F8049806B0BDE8F08743F6F05084
S3150200274843F6AA5243F67403C0F20020C0F20022EE
S31502002758C0F2002340F2F141FEF73AFF43F6F05089
S3150200276843F6AA5243F60E33C0F20020C0F2002204
S31502002778C0F2002340F2F241FEF72AFF43F6F05078
S3150200278843F6AA5244F27B13C0F20020C0F200229A
S31502002798C0F2002340F2FA41FEF71AFFD4D4D4D489
S315020027A82DE9F04381B00446FDF777FF47F244006E
S315020027B847F22007C2F20020C2F2002747F2280990
S315020027C80168C2F2002901310160396851B1D9F8AC
S315020027D80000002842D13868E16AC06A884298BF78
S315020027E83C603BE03C600068012837D147F250055F
S315020027F80526C2F2002500BF2846FFF7D6FA013E93
S3150200280805F11405F8D147F2FC08C2F20028404641
S31502002818FFF7CBFA47F21015C2F200252846FFF752
S31502002828C4FA47F2D000C2F20020FFF7BEFA47F216
S315020028382C00C2F20020FFF7B8FA47F2B800C2F23B
S315020028480020FFF7B2FA47F2F00047F2F401C2F2AB
S315020028580020C2F20021C0F800800D6047F2240071
S31502002868231DC2F2002001680131016047F2B4015A
S31502002878E06AC2F200210A68904288BF086000EB4B
S31502002888800047F25001C2F2002101EB8000406845
S31502002898A0608268E26053608360E06A00EB8000B1
S315020028A801EB8002626151F82020013241F82020B2
S315020028B8FDF721FFD9F8000078B13868E16AC06AE5
S315020028C888420AD24EF604504FF08051CEF20000EA
S315020028D80160BFF34F8FBFF36F8F01B0BDE8F0837E
S315020028E82DE9F04F83B0074690009846154689466B
S315020028F8FFF796F8E0B106466020FFF791F8A0B117
S3150200290860210446DDE90CBA00F0E1FE3846494684
S315020029182A46434626630294CDE900BA00F0A0FC93
S315020029282046FFF73DFF012004E03046FFF79CF9F9
S315020029384FF0FF3003B0BDE8F08F10B5044690F8AB
S315020029485D00022808BF10BD012803D038B9206BE4
S31502002958FFF78AF92046BDE81040FFF785B943F626
S31502002968F05043F6802243F6BE53C0F20020C0F26E
S315020029780022C0F2002341F62E11FEF729FE47F285
S315020029884800C2F2002001680131016070472DE952
S31502002998F04381B047F24C0247F2F003C2F200223A
S315020029A847F22004C2F20023C2F20024156847F255
S315020029B8F402C2F20022D3F8008006460F46D2F885
S315020029C800902268101DFFF71CFA701C16D1AFB1D1
S315020029D847F2B800C2F20020D0E90012236801319A
S315020029E89A6093682768FB60276804375F602368E4
S315020029F80433936022680160506117E02068AD19BC
S31502002A084560206800F1040105D3484601B0BDE8D7
S31502002A18F043FFF7D9B94046FFF7D6F947F2E40083
S31502002A28C2F2002001688D4238BF056001B0BDE8D8
S31502002A38F083D4D4D4D4D4D42DE9F047FDF72DFEAF
S31502002A4847F24800C2F200200168002900F0B2806D
S31502002A58016801390160006828B10024FDF74BFEC0
S31502002A682046BDE8F08747F24400C2F2002000681B
S31502002A780028F2D047F2D00047F2CC0AC2F2002070
S31502002A8847F22009C2F2002AC2F200290168002987
S31502002A9867D047F2B40E47F250030021C2F2002E65
S31502002AA8C2F200234FF0010CC768FC6804F1180251
S31502002AB8D4E90775A66ABD60E7696F6075689542CD
S31502002AC801D1226A7260A1623268013A3260261D19
S31502002AD8D4E9022567699560A2686A607A68B24293
S31502002AE801D1E2687A6061613A68013A3A60E76A56
S31502002AF8DEF80020974207EB870288BFCEF80070FF
S31502002B0803EB82025268A2609568E5606E60966081
S31502002B18E26A02EB820203EB8205656153F82250F0
S31502002B28013543F82250E26AD9F80040E46AA24223
S31502002B3888BFCAF800C002680AB12FF04BC847F22C
S31502002B48F000C2F200200168096819B10068C0687D
S31502002B58006801E04FF0FF3047F2E401C2F20021BB
S31502002B68086047F2EC08C2F20028D8F800606EB195
S31502002B78012400BF00BF00BF00F032F908B1CAF84D
S31502002B880040013EF8D10020C8F80000DAF800003B
S31502002B9800283FF462AFD9F800004EF60450CEF290
S31502002BA800004FF0805101240160BFF34F8FBFF33D
S31502002BB86F8F53E743F6F05043F6C62243F6FE6399
S31502002BC8C0F20020C0F20022C0F2002340F68B7148
S31502002BD8FEF7FEFC80B580B147F24801C2F2002139
S31502002BE80A6801320A600968012912D10021FFF731
S31502002BF8CEFEFFF721FF00B180BD4EF604504FF01E
S31502002C088051CEF200000160BFF34F8FBFF36F8F82
S31502002C1880BD43F6F05043F69C6243F67943C0F210
S31502002C280020C0F20022C0F2002340F68E11FEF701
S31502002C38CFFCD4D4D4D4D4D480B547F24800C2F257
S31502002C480020006830B147F2CC000121C2F2002010
S31502002C58016080BD47F2CC0047F2B40CC2F20020F4
S31502002C68C2F2002C002147F250030160C2F200238F
S31502002C78DCF8001001EB810253F8220003EB820212
S31502002C8848B900BF00BF00BFC1B152F8140D0139DF
S31502002C9808B92FF007C8536802F108005B68536049
S31502002CA8834201D1D368536047F22002D868C2F240
S31502002CB800221060CCF80010106880BD43F6F05070
S31502002CC843F62E0244F21713C0F20020C0F2002285
S31502002CD8C0F2002341F2FA31FEF77AFC10B58AB047
S31502002CE844F2494004A9C4F24C50069005A803AA26
S31502002CF800248DF81C40CDE90444FDF7A7FB0DF12D
S31502002D080C0E43F20130C0F2002006A99EE80450D8
S31502002D1800230094CDE901CEFFF7DDFC47F2E80176
S31502002D28C2F20021086060B300F0FFFA012811D050
S31502002D38013026D143F6F05043F6EA6243F6A04341
S31502002D48C0F20020C0F20022C0F2002340F6A961B8
S31502002D58FEF73EFC47F2E4010120C2F2002180F3AD
S31502002D6810884FF0FF320A6047F22801C2F20021AA
S31502002D78086047F24C00C2F2002000210160FDF70C
S31502002D884BFC44F2FC40C0F2002000680AB010BDB9
S31502002D98F0B581B047F24005C2F200252868E8B1CD
S31502002DA847F22C0647F24407C2F20026C2F200276F
S31502002DB8FDF773FCF068C468201DFFF722F838682F
S31502002DC801383860286801382860FDF794FC2046E7
S31502002DD8FFF7B3FD286808B12FF017C001B0F0BDA0
S31502002DE82DE9F04F81B047F24800C2F20020006890
S31502002DF840B147F2EC00C2F20020016801310160DD
S31502002E080020B6E047F24C0047F2E40CC2F200207A
S31502002E18C2F2002C016811F1010BC0F800B022D3EE
S31502002E2847F2F000C2F2002001680968002940F062
S31502002E38A38047F2F4030168C2F200231F68076001
S31502002E48196047F2F801C2F200210B6801330B60E0
S31502002E580168096819B10068C068006801E04FF0A6
S31502002E68FF30CCF80000DCF80000834501D20020D0
S31502002E7877E047F2F00A4FF00009C2F2002ADAF8C0
S31502002E8800000068002867D047F2B40E47F25004E3
S31502002E9847F22008C2F2002EC2F20024C2F200282B
S31502002EA8002000BF00BF00BFDAF80050ED68EE68E8
S31502002EB8374657F8045FAB4551D3D6E9021375690D
S31502002EC88B60B16859606968B94201D1F168696075
S31502002ED8C6F81490296801392960B56A85B1D6E918
S31502002EE8071306F118028B60F16959606968914205
S31502002EF801D1316A6960C6F82890296801392960C2
S31502002F08F56ADEF800108D4205EB850188BFCEF81A
S31502002F18005004EB81014968B1608A68F260576023
S31502002F288F60F16A01EB810104EB8102726154F848
S31502002F382120013244F82120F16AD8F80020D26A09
S31502002F48DAF80030914288BF0120196809B12FF0DA
S31502002F5855C84FF0FF3502E04FF0FF350020CCF898
S31502002F68005047F2CC01C2F200210968002918BFB5
S31502002F78012001B0BDE8F08F43F6F05043F66252E5
S31502002F8843F2B873C0F20020C0F20022C0F2002356
S31502002F9841F25F21FEF71CFB47F24C00C2F2002009
S31502002FA80068704710B570B10C4647F22001C2F2AC
S31502002FB8002109681831FEF707FF01212046BDE8FE
S31502002FC81040FFF7E4BC43F6F05043F6CD6243F6F1
S31502002FD89443C0F20020C0F20022C0F200234FF44C
S31502002FE8A451FEF7F5FA10B548B347F2200CD0F80B
S31502002FF804E0C2F2002C002ADCF80030C3F81CE018
S31502003008DEF80830DCF800402362DCF8004004F100
S3150200301818045C60DCF8003003F11803CEF80830B7
S31502003028DCF80030986218BF4FF0FF3103680133AD
S31502003038036008461146BDE81040FFF7A8BC43F6F0
S31502003048F05043F6D52243F69443C0F20020C0F26C
S315020030580022C0F2002341F2BE41FEF7B9FA80B55A
S31502003068C068C068002872D0D0E9073100F1180C90
S31502003078826A9960C3694B605168614501D1016AE8
S3150200308851600021816211680139116047F24801D5
S31502003098C2F20021096891B147F2D00EC2F2002E9F
S315020030A8DEE90023C36199680162C1F804C0C3F866
S315020030B808C0C0F828E0511CCEF8001035E0D0E967
S315020030C8023100F1040C4269996083684B605168C9
S315020030D8614501D1C16851600021416147F2B403DB
S315020030E81168C2F2002301391160C26A19688A425C
S315020030F888BF1A6002EB820147F25002C2F200222E
S3150200310802EB8101496881608B68C360C3F804C019
S31502003118C1F808C0C16A01EB810102EB8103436170
S3150200312852F82130013342F8213047F22001C06AB1
S31502003138C2F200210968C96A884206D947F2CC0157
S315020031480120C2F20021086080BD002080BD43F63E
S31502003158F05043F6F52243F66C13C0F20020C0F293
S315020031680022C0F2002341F2F541FEF731FA47F296
S31502003178F801C2F200210968016047F24C01C2F265
S31502003188002109684160704770B568B30D46D9B326
S315020031980446FDF782FA47F24C0EC2F2002EDEF81A
S315020031A8003029684A1C16D047F2F80CD4E9000206
S315020031B8C2F2002CDCF80060864201D093420CD29F
S315020031C89A1A914209D9881A2860DCF80000206008
S315020031D8DEF800006060002402E001240020286076
S315020031E8FDF789FA204670BD43F6F05043F67F6232
S315020031F843F66523C0F20020C0F20022C0F2002383
S3150200320841F2A551FEF7E4F943F6F05043F67F6220
S3150200321843F63E33C0F20020C0F20022C0F2002379
S3150200322841F2A651FEF7D4F947F2CC000121C2F2C7
S3150200323800200160704747F22800C2F200200068A9
S3150200324850B147F24800C2F20020006800284FF049
S31502003258000008BF0220704701207047D4D4D4D496
S315020032682DE9F04381B00A9F98468146089C386B3F
S3150200327871B107F134030F2611F8015B03F8015BFC
S315020032881DB1002EA6F10106F6D1002187F84310DA
S31502003298052C1ED200EB8200099D0438FC6220F040
S315020032A80706381DFEF78CFD07F11800FEF788FDA4
S315020032B8C4F10500B861396B30464A4643463F6158
S315020032C87F62FDF78BF9386005B12F6001B0BDE862
S315020032D8F08343F6F05043F6293243F66F23C0F2E1
S315020032E80020C0F20022C0F2002340F26471FEF709
S315020032F86FF9D4D4D4D4D4D447F250044EF6045534
S31502003308C2F20024CEF200054FF0805600BF00BF7D
S31502003318FFF73EFD2068022804D32E60BFF34F8FC5
S31502003328BFF36F8FFCF7A3FEF2E780B586B000F015
S315020033383AF847F22410C2F20020006818B30020B7
S31502003348CDE9040005A804A903AAFDF78DF80DF135
S315020033580C0E0320009043F2294044F23101C0F2D8
S3150200336800209EE80450C0F200210023CDE901CED8
S31502003378FFF7B1F947F22811C2F20021086010B12D
S31502003388012006B080BD43F6910044F2011243F6CD
S315020033984C33C0F20020C0F20022C0F200234FF4E0
S315020033A8A371FEF715F970B582B0FDF776F947F203
S315020033B82416C2F20026306868BB47F23814C2F2F5
S315020033C800242046FEF7F1FC47F24C15C2F200250E
S315020033D82846FEF7EAFC47F22C1047F23011C2F2F1
S315020033E80020C2F2002147F2A81247F260130460D5
S315020033F80D60C2F20022C2F200230A200C21002527
S315020034080095FEF76EFD306028B143F6CE01C0F294
S315020034180021FFF709F902B0BDE87040FDF76BB964
S3150200342884B047F22C1847F22415C2F2002801ACE0
S31502003438C2F200254FF0000BEA4600BF00BF00BFEC
S31502003448D8F80000D0F80090B9F1000F04D0C0688F
S31502003458066802E000BF00BF0026FFF790FA204682
S3150200346800F0AEF8019919B1FFF7E6FA30E000BFAD
S315020034780746B9F1000F08D0BE4206D8FFF7DCFAB4
S315020034883046394600F0C9F822E0B9F1000F01D0FA
S31502003498002208E047F23010C2F2002000680068F5
S315020034A800285FEA1F922868F11BFFF7F1F8FFF779
S315020034B8C3FA68B94EF604504FF08051CEF20000B6
S315020034C80160BFF34F8FBFF36F8F00BF00BF00BF0E
S315020034D8CDF80CB0CDE901BB286800222146FEF7DB
S315020034E8F7FE08B92FF055C001980028F4D4039EB8
S315020034F8706910B1301DFEF784FC504600F060F882
S31502003508019901390829E7D80746DFE801F00505D8
S315020035182E1E4005052E1E0096F82400029BB16950
S315020035283A4640F0010086F824001944304600F075
S31502003538AEF808B92FF031C096F8240041071BD41B
S3150200354800F0FA0086F824001DE096F82410029886
S31502003558B06141F0010186F8241000B3C119304662
S315020035683A463B4600F093F8B6E796F8240000F090
S31502003578FE0086F82400AFE70298B1690144304696
S315020035883A4600F06DF8316A30468847A4E796F85D
S3150200359824008107EBD43046FEF766FB9CE743F628
S315020035A8910044F2030244F29413C0F20020C0F2DE
S315020035B80022C0F200234FF48261FEF709F8D4D440
S315020035C8F0B581B00446FFF7E7FC47F23416054624
S315020035D8C2F200263168884210D247F22C17C2F28C
S315020035E8002700BF00BF00BF3868016841B1C06844
S315020035F84FF0FF31006800F010F8F5E7002007E009
S3150200360847F23011C2F200210A68086001203A60C6
S3150200361820603560284601B0F0BD70B547F22C121D
S315020036280646C2F200220D461268D268D468201DE8
S31502003638FEF7E7FB94F82400410704D400F0FA00E9
S3150200364884F8240004E0204631462A4600F008F8A9
S31502003658216A2046BDE870400847D4D4D4D4D4D4CD
S3150200366870B50446806915460E460144204600BFD9
S31502003678334600F00CF848B1A069216A0644204690
S315020036888847A0692A4681192046F1E770BD8C460B
S3150200369801469445006141F804CF08D947F22C1037
S315020036A89A42C2F200200AD29C4508D30DE08069EC
S315020036B8D21A824209D247F23010C2F2002080B5ED
S315020036C80068FEF781FB002080BD012070470A468C
S315020036D8002100F009B810B5002322B1CC5C013AEA
S315020036E8C4540133F9E710BD03461AB103F8011BA6
S315020036F8013AFAE77047D4D410B505490446054A93
S31502003708FFF7E9FF044805492044FFF7E0FF10BD2B
S315020037185400000200000000000000000000000043
S315020037280249401A02490860704700BF08000000B3
S31502003738207200227578437269746963616C4E65FA
S315020037487374696E6700765175657565416464546C
S315020037586F526567697374727900764170706C6925
S31502003768636174696F6E4D616C6C6F634661696CF7
S315020037786564486F6F6B002E2E2F72612F66737009
S315020037882F7372632F726D5F6672656572746F73DB
S315020037985F706F72742F706F72742E630076506F3B
S315020037A87274456E746572437269746963616C00FA
S315020037B82820282028202820707844656C6179659D
S315020037C8645461736B4C69737420292D3E75784E67
S315020037D8756D6265724F664974656D73203D3D204D
S315020037E828205542617365547970655F74202920D3
S315020037F8302029203F2028202820426173655479E9
S3150200380870655F74202920312029203A2028202833
S315020038182042617365547970655F742029203020CF
S31502003828292029202900765461736B5377697463BA
S3150200383868436F6E74657874002820282070784271
S315020038486C6F636B2D3E78426C6F636B53697A6556
S315020038582029203C2028207857616E7465645369B4
S315020038687A6520292029203D3D203000707578533D
S315020038787461636B42756666657220213D2028284D
S31502003888766F69642A293029002E2E2F72612F61DC
S3150200389877732F4672656552544F532F4672656584
S315020038A852544F532F536F757263652F74696D6542
S315020038B872732E630075635356434E756D62657255
S315020038C8203C3D203300546D725100785175657560
S315020038D86547656E6572696353656E6400212820C3
S315020038E82820785461736B476574536368656475F9
S315020038F86C657253746174652829203D3D20282021
S31502003908282042617365547970655F7420292030D6
S3150200391820292029202626202820785469636B73BB
S31502003928546F5761697420213D20302029202900CF
S315020039387076506F72744D616C6C6F63007072763C
S31502003948496E73657274426C6F636B496E746F4627
S315020039587265654C697374002820707851756575AF
S31502003968652029007078556E626C6F636B656454C6
S315020039784342002820282075696E74385F74202A0D
S315020039882029202820707652657475726E202920A7
S315020039983E3D202628207563486561705B203020ED
S315020039A85D20292029202626202820282075696EB0
S315020039B874385F74202A202920282070765265746C
S315020039C875726E2029203C3D20262820756348659D
S315020039D861705B2028313032343029202D20312085
S315020039E85D202920290070785374617469635175C2
S315020039F86575650078517565756547656E657269A1
S31502003A0863437265617465007848616E646C65002B
S31502003A18212820282078436F7079506F736974695A
S31502003A286F6E203D3D202820282042617365547917
S31502003A3870655F7420292032202920292026262015
S31502003A482820707851756575652D3E75784C656EBA
S31502003A5867746820213D2031202920290070785476
S31502003A68696D654F75740075785072696F726974FD
S31502003A7879203C202835290070727644656C657475
S31502003A88655443420028202820282073697A655FF6
S31502003A9874202920707652657475726E2029202644
S31502003AA820282073697A655F7420292028203078B7
S31502003AB83030303720292029203D3D2030007854E7
S31502003AC861736B526573756D65416C6C00765461F2
S31502003AD8736B506C6163654F6E4576656E744C699F
S31502003AE87374526573747269637465640078546199
S31502003AF8736B52656D6F766546726F6D4576656E48
S31502003B08744C6973740070785461736B4275666697
S31502003B18657220213D202828766F69642A29302972
S31502003B2800707276496E697469616C6973654E656F
S31502003B38775461736B0070785469636B73546F576B
S31502003B48616974007852657475726E002828285364
S31502003B5843425F54797065202A29202828307845FF
S31502003B6830303045303030554C29202B20307830D3
S31502003B78443030554C2920292D3E4943535220269C
S31502003B8820283078314646554C202929203D3D20AB
S31502003B9830007853697A65203D3D2073697A656FEE
S31502003BA866282051756575655F74202900785175F8
S31502003BB865756553656D6170686F726554616B658D
S31502003BC8002E2E2F7372632F68616C5F656E747296
S31502003BD8792E630078517565756547656E657269F4
S31502003BE863437265617465537461746963007650E0
S31502003BF86F727453564348616E646C65725F430014
S31502003C082E2E2F72612F6177732F46726565525475
S31502003C184F532F4672656552544F532F536F757221
S31502003C2863652F706F727461626C652F4D656D4D99
S31502003C38616E672F686561705F342E6300282028DD
S31502003C4820282073697A655F7420292070784E656A
S31502003C5877426C6F636B4C696E6B2029202620288D
S31502003C682030783030303720292029203D3D203039
S31502003C780075785363686564756C657253757370FD
S31502003C88656E646564203D3D203155007078457641
S31502003C98656E744C697374007852657475726E2019
S31502003CA8213D2028202D312029004E657720546891
S31502003CB8726561640028202820282070784C696E75
S31502003CC86B2D3E78426C6F636B53697A65202920A7
S31502003CD8262028202820282073697A655F742029DF
S31502003CE820312029203C3C202820282073697A6527
S31502003CF86F66282073697A655F742029202A20282E
S31502003D0820282073697A655F7420292038202920A3
S31502003D1829202D203120292029202920213D203023
S31502003D28202920213D20300078517565756543723A
S31502003D3865617465436F756E74696E6753656D6107
S31502003D4870686F726553746174696300785175653A
S31502003D5875655265636569766500785461736B4962
S31502003D686E6372656D656E745469636B002E2E2FD1
S31502003D7872612F6177732F4672656552544F532FBE
S31502003D884672656552544F532F536F757263652F8A
S31502003D9871756575652E630076506F727446726525
S31502003DA865007072764372656174655374617469ED
S31502003DB8635461736B0070785443422D3E756353A6
S31502003DC87461746963616C6C79416C6C6F6361745C
S31502003DD86564203D3D202820282075696E74385F69
S31502003DE874202920322029002E2E2F72612F617706
S31502003DF8732F4672656552544F532F467265655244
S31502003E08544F532F536F757263652F7461736B73B7
S31502003E182E630070784E65775175657565002128A1
S31502003E282028202820707642756666657220292029
S31502003E383D3D202828766F69642A293029202920C1
S31502003E482626202820282070785175657565202930
S31502003E582D3E75784974656D53697A6520213D2032
S31502003E6828205542617365547970655F742029204C
S31502003E7830552029202900785461736B436865639D
S31502003E886B466F7254696D654F757400707851751B
S31502003E9865756500765461736B44656C61790030AB
S31502003EA8007852657475726E20213D2028202820DC
S31502003EB8282042617365547970655F742029203021
S31502003EC82029202900765461736B506C6163654F13
S31502003ED86E4576656E744C697374007851756575AE
S31502003EE86500765461736B537461727453636865C3
S31502003EF864756C65720075785363686564756C657C
S31502003F087253757370656E64656420213D20305561
S31502003F1800566F69636553656E640028202820750C
S31502003F28696E74385F74202A202920282070784206
S31502003F386C6F636B2029203E3D2026282075634836
S31502003F486561705B2030205D2029202920262620E5
S31502003F582820282075696E74385F74202A20292043
S31502003F6828207078426C6F636B2029203C3D2026FE
S31502003F7828207563486561705B20283130323430F9
S31502003F8829202D2031205D202920290028202820BB
S31502003F9875696E74385F74202A2029202820707863
S31502003FA84C696E6B2029203E3D20262820756348E1
S31502003FB86561705B2030205D202920292026262075
S31502003FC82820282075696E74385F74202A202920D3
S31502003FD8282070784C696E6B2029203C3D202628C3
S31502003FE8207563486561705B202831303234302988
S31502003FF8202D2031205D20292029007072765072EA
S315020040086F636573735265636569766564436F6D3D
S315020040186D616E64730078517565756547656E6581
S31502004028726963526573657400546D7220537663C0
S315020040380076506F7274457869744372697469635D
S31502004048616C0070784C696E6B2D3E70784E65789F
S315020040587446726565426C6F636B203D3D20282865
S31502004068766F69642A293029002820282075696E06
S3150200407874385F74202A20292028207078497465AC
S315020040887261746F722029203E3D202628207563AE
S31502004098486561705B2030205D202920292026266C
S315020040A8202820282075696E74385F74202A2029F2
S315020040B820282070784974657261746F72202920ED
S315020040C83C3D202628207563486561705B202831AF
S315020040D83032343029202D2031205D202920290034
S315020040E8707851756575652D3E75784974656D5399
S315020040F8697A65203D3D2030007854696D657243C2
S31502004108726561746554696D65725461736B007585
S3150200411878546F705072696F726974790021282019
S31502004128282070764974656D546F517565756520DA
S315020041383D3D202828766F69642A293029202920BE
S315020041482626202820707851756575652D3E757866
S315020041584974656D53697A6520213D2028205542A8
S31502004168617365547970655F74202920305520295A
S315020041782029007853697A65203D3D2073697A655E
S315020041886F6628205443425F7420290028207078DD
S3150200419854696D65722D3E7854696D657250657203
S315020041A8696F64496E5469636B73203E2030202917
S315020041B800D4D4D400010000000000220F00FFFF43
S315020041C80000000101000000010200000C000C01C1
S315020041D80C020C0300000000000000000B030002A2
S315020041E800000000BC41000200000000DFFF0000E2
S315020041F80000000000000000A0410022F041000279
S3150200420888420002000000000000010302010000CB
S315020042180000010304010000000001050802000075
S315020042280000010509020000000001000A02000060
S31502004238000001000B020000000001050004000056
S31502004248000001050104000000000104080900003D
S3150200425800000104090900000A00000010420002D9
S3150200426800000000CB02CC02CD02CE0206000000FE
S315020042780800000003000000050000000A00000014
S31502004288CF0C0002670D0002790D0002810D0002B3
S315020042988D0D0002020403040404D4D4000000684D
S315020042A80000006800000080000000800000007026
S315020042B80000007020000022200000220B000000EF
S315020042C8DC420002190000006043000204000000FC
S315020042D8A442000200000068000000680001000D08
S315020042E800000068000000680001000D0000008060
S315020042F80000008000010008000000800000008025
S315020043080001000800000070000000700001000AA9
S3150200431800000070000000700001000A00000000A2
S315020043280000000001000005000000200000002037
S3150200433801000004200000222000002200000003E1
S315020043484C4000222472002200000003247200223C
S3150200435824720022000000030000006800000068C2
S31502004368000000900001090D0000006800000068C6
S315020043780000007800010B0D0000006800000068CC
S31502004388000000270001020D000000680000006816
S31502004398500000020001010D0000008000000080AC
S315020043A8000000900001090800000080000000805B
S315020043B80000007800010B08000000800000008061
S315020043C800000027000102080000008000000080AB
S315020043D85000000200010108000000700000007091
S315020043E8000000900001090A000000700000007039
S315020043F80000007800010B0A00000070000000703F
S31502004408000000270001020A000000700000007088
S31502004418500000020001010A00000000000000002E
S3150200442800000090010109050000000000000000DC
S315020044380000007801010B050000000000000000E2
S31502004448000000270100020500000000000000002D
S3150200445850000002010001050000002000000020B3
S31502004468000000900101090400000020000000205D
S315020044780000007801010B04000000200000002063
S3150200448800000027010002040000002000000020AE
S315020044985000000201000104000000220000002270
S315020044A8000000900001090300000022000000221B
S315020044B80000007800010B03000000220000002221
S315020044C80000002700000203000000220400002268
S315020044D85000000200000103247200222472002206
S315020044E85400000200000103010002000800100047
S315020044F82000D4D40400000000000406362E342E10
S3150200450830004275696C7420776974682052656E4A
S315020045186573617320416476616E63656420466CD7
S31502004528657869626C6520536F6674776172652077
S315020045385061636B6167652076657273696F6E2079
S30B02004548362E342E30006F
S30902C9F040FFFFFFFFFF
S30902C9F044EFFFFFFF0B
S30902C9F0C0FFFFFFFD81
S30902C9F0C4FFFFFFFF7B
S30902C9F120000000001A
S30902C9F1240000000016
S7050200178160
