S010000074776F5F435055312E7372656342
S3150208000020800F22FD450802854408020746080299
S315020800100746080207460802074608020746080274
S31502080020000000000000000000000000892B080202
S315020800300746080200000000A12B0802092C080244
S31502080040593308027B320802E133080233340802C4
S31502080050593308027B320802E133080233340802B4
S315020800606140080261400802593308027B320802DD
S31502080070E13308023334080229420802A13508028C
S3150208008080B2E60E3975080231740802FFFFFFFFD7
S3110208009010400000104000001040000064
S315020800A010B5044648F24C00C2F20F2001703CB16A
S315020800B0084600F05DF92046BDE8104000F058BA3F
S315020800C00020BDE8104000F01DBB10B5044648F2FA
S315020800D04D00C2F20F2001703CB1084600F060F9EB
S315020800E02046BDE8104000F07BBA0120BDE810406A
S315020800F000F008BB70B52DED048B089E1C4615460C
S31502080100B0B3002934D048BF4942002800D540423E
S3150208011000EE101A01EE100AB8EE400AF8EE410A8D
S3150208012009F074FCB0EE408A09F0B4FDB0EE409ACC
S31502080130B0EE480A0AF032FA01EE105AB8EE411A3F
S3150208014029EE012ABDEEC22A20EE010A12EE100A93
S31502080150BDEEC00A206010EE100A3060216801293F
S3150208016002D8022020603068012803D8022500E060
S3150208017025603560BDEC048B70BDD4D42DE9F04101
S3150208018084B048F24C080C46054600284FF0000099
S315020801904FF00001C2F20F2848F24D07C8BF0121ED
S315020801A088F80010002CC8BF0120C2F20F27387049
S315020801B0002D284600D5684248F25001C2F20F21A6
S315020801C00860002C204600D5604248F25401C2F26B
S315020801D00F21086002AE03AB284621460096FFF7B8
S315020801E089FF0DB900200390039898F80010029E23
S315020801F03F78002C08BF2646FFF752FF304639469D
S31502080200FFF763FF002000F069FA25B10028F9D04C
S3150208021001E000BF20B9012000F060FA002CF9D1F4
S3150208022004B0BDE8F08180B5FFF7A8FF012080BDC4
S3150208023082B000F07BF900F083F801F015FC10207B
S3150208024004210022002604F015FD044610B12046BA
S3150208025000F0BEF848F28E0748F28F0948F2900A73
S3150208026048F2910B01ADC2F20F274FF00108C2F214
S315020802700F29C2F20F2AC2F20F2B00BF20462946C7
S31502080280002204F027FF012836D19DF80700052829
S31502080290F4D19DF8060002380928EFD8DFE800F005
S315020802A0061D0D15090505050525E7E787F80080EA
S315020802B000E03E7089F8006012E03E7089F800603E
S315020802C08AF800808BF80060D8E73E7089F80060EB
S315020802D08AF800608BF80080D0E73E7089F80080C3
S315020802E08AF800608BF80060C8E748F25800C2F244
S315020802F00F2080F80080C1E73878012802D1002053
S315020803004B2114E099F80000012803D100206FF070
S315020803104A010CE09AF80000012802D16FF04A005F
S3150208032004E09BF80000012805D14B2000214FF478
S315020803309672FFF778FF4FF4967005F02DFB9DE74E
S31502080340B0B54BF68830C0F20820856848F24054AA
S31502080350EB69C2F20F24204640F2051100229847A3
S31502080360EB69204640F606510022BDE8B040184720
S3150208037080B54BF68831C0F2082189680246CB69F6
S31502080380002848F24050C2F20F2040F2051118BF69
S315020803900122984701200121BDE8804004F02BB8CC
S315020803A080B54BF68831C0F2082189680246CB69C6
S315020803B0002848F24050C2F20F2040F6065118BFF4
S315020803C00122984701200121BDE8804004F013B8B4
S315020803D010B548F25C0CC2F20F2CDCF800100028AB
S315020803E002464FF0000318BF0122082938BF01232D
S315020803F002EA030EBEF1010F15D159B148F26003A4
S31502080400C2F20F230A4600BF53F8044B84420AD0AD
S31502080410013AF9D148F26002C2F20F224B1CCCF81B
S31502080420003042F82100704610BDD4D42DE9F041BF
S3150208043082B081680022B1F5803F01922AD148F242
S315020804405C08C2F20F28D8F800104068009009B379
S3150208045048F260060027C2F20F266C4601AD00BFBD
S3150208046056F8270030B121462A46002304F0A3FD98
S31502080470D8F8001001378F42F2D3019850B14EF6E0
S315020804800450CEF200004FF080510160BFF34F8F47
S31502080490BFF36F8F02B0BDE8F081D4D482B04BF6B9
S315020804A01C41C0F2082107C91268904728B100BF4B
S315020804B04FF0FF3005F070FAFAE710200421002207
S315020804C004F0D8FB0446D8B148F25C01C2F20F2107
S315020804D00868072814D858B148F26002C2F20F22F7
S315020804E0034600BF52F8046BA64209D0013BF9D174
S315020804F048F26002C2F20F22431C0B6042F8204007
S3150208050048F2800601ADC2F20F2600BF20462946F0
S315020805104FF0FF3204F0DEFD0128F7D19DF80700FF
S315020805200128F3D1306801303060EFE7B0B548F200
S31502080530D854C2F20F244BF62C51C0F20821204699
S3150208054003F06CFA48F2B855C2F20F254BF6B441DD
S31502080550C0F20821284603F061FA204603F0D6FCC9
S315020805602846BDE8B04003F0D1BCD4D4D4D4D4D400
S31502080570B0B548F2D854C2F20F240546204603F015
S31502080580C5FC4AF20000C2F20E200068B0FBF5F57F
S315020805902046691E03F0BFFC284606F009FC9FEDBB
S315020805A00C0B53EC102B06F07BFD9FED0B0B53EC5B
S315020805B0102B06F06DFB06F0A1FB014620464122F0
S315020805C003F0C5FC2046BDE8B04003F09ABC00BF64
S315020805D000000000000049400000000000005940E9
S315020805E0B0B548F2B854C2F20F240546204603F0C5
S315020805F08DFC4AF20000C2F20E200068B0FBF5F547
S315020806002046691E03F087FC284606F0D1FB9FEDBB
S315020806100C0B53EC102B06F043FD9FED0B0B53EC22
S31502080620102B06F035FB06F069FB014620464122EF
S3150208063003F08DFC2046BDE8B04003F062BC00BF63
S315020806400000000000004940000000000000594078
S31502080650007900B1704748F28400C2F20F2048F2CE
S3150208066050020168C2F20F221268013191420160FA
S31502080670F0D380B50021016048F2D850C2F20F20AB
S3150208068003F044FC48F28C00C2F20F2001210170EB
S31502080690BDE880407047007900B1704748F288008B
S315020806A0C2F20F2048F254020168C2F20F221268FF
S315020806B0013191420160F0D380B50021016048F210
S315020806C0B850C2F20F2003F021FC48F28D00C2F2A4
S315020806D00F2001210170BDE880407047012805D02E
S315020806E070B948F28C00C2F20F2003E048F28D007E
S315020806F0C2F20F20017819B100210170012070475A
S3150208070000207047C8B1022808D0012818BF7047D0
S3150208071048F2B850C2F20F2003F0F8BB80B548F28F
S31502080720D850C2F20F2003F0F1FB48F2B850C2F2D9
S315020807300F20BDE8804003F0E9BB48F2D850C2F268
S315020807400F2003F0E3BBD4D4ADF50C7D00F05FF9BE
S3150208075001F050F84BF62831C0F2082183A8E8C9FF
S315020807600246E8C291E8F8000321F8C200F0CEF981
S315020807701020042100224FF0000904F07BFA0446F7
S3150208078010B12046FFF724FE48F2A0074FF00108F1
S3150208079082AD0DF1080A0DF1060BC2F20F270026EB
S315020807A020462946002204F095FC01280AD19DF824
S315020807B00B020528F4D19DF80A020928F0D100F0A7
S315020807C0EAF8EDE75FEAC87000F0A280F00705D103
S315020807D04BF29860C0F2082000F090FE50464FF4A3
S315020807E000715A46ADF8069001F0B4F8002800F0F8
S315020807F08480504601F010FB00286CD04BF20F01A2
S31502080800C0F208210746D34601F00AFB82464AF699
S315020808101C51002808BFBA465046C0F2082101F00A
S31502080820FFFA4BF2B05181465046C0F2082101F058
S31502080830F7FA4BF21C4106465046C0F2082101F06F
S31502080840EFFA4BF29D7180465046C0F2082101F03C
S31502080850E7FAB9F1000F0CD0D9F80C10012908D81B
S315020808600139B1FA81F148F28E024909C2F20F2220
S3150208087011705EB1F168012908D80139B1FA81F11E
S3150208088048F28F024909C2F20F221170B8F1000F1D
S315020808904FF00009DA460CD0D8F80C10012908D80E
S315020808A00139B1FA81F148F290024909C2F20F22DE
S315020808B011700DF1060B58B1C068012808D8013825
S315020808C0B0FA80F048F291014009C2F20F2108708D
S315020808D0384601F0E3F848F2AC00C2F20F204FF4B2
S315020808E0007106F088FD48F2A80048F2A007C2F295
S315020808F00F20C2F20F27A0F800903868013032287C
S31502080900386023D3C7F8009000F0DAFF80461FE06C
S31502080910642005F041F800F089FF4FF4FA6005F00B
S315020809203BF800F051FA4FF4FA7005F035F84AF63A
S31502080930F5204AF67171C0F20820C0F20821052294
S3150208094000F0B2FA30B14FF0000811E04FF001089A
S3150208095001260DE04FF47A7005F01EF883A80321EC
S3150208096000F0D4F800F0ACFF804680F001000640A3
S3150208097048F29C00C2F20F200078012807D148F2FB
S315020809809C00C2F20F2080F8009000F004F80A20BA
S3150208099005F002F804E710B5CAB048F294014AF61F
S315020809A0F120C2F20F21C0F2082009684190002006
S315020809B0CDE942014BF65011C0F20821449148F2A2
S315020809C09801C2F20F21096801ACCDE945014AF640
S315020809D08401C0F20821479101218DF820114FF4B4
S315020809E08071ADF82101CDF823118DF8270141A9AF
S315020809F02046032200F0FAFD4AF64E40C0F20820CD
S31502080A00214600F053FE4AB010BDD4D4FEE780B5A5
S31502080A1048F22C604BF69451C2F20F20C0F208211C
S31502080A2002F040FA00B980BD4AF6FE204BF2E262B5
S31502080A304AF61633C0F20820C0F20822C0F208238A
S31502080A40282103F0D5FC017902290DD0042918BF03
S31502080A507047806848F2A601C2F20F21087048F270
S31502080A60A500C2F20F2003E048F2A400C2F20F204A
S31502080A70012101707047D4D430B30146002000BF6B
S31502080A80FF2800F1010203D8085C00281046F7D1B6
S31502080A90013A19D080B548F22C60C2F20F2002F052
S31502080AA08FFB48F2A40048F2A0620021C2F20F208E
S31502080AB0C0F20102BDE8804003781BB9914201F1F8
S31502080AC00101F9D30021017070470179022915D075
S31502080AD0042919D148F2A802C2F20F221188B1F5E7
S31502080AE0FF7F88BF70474B1C8068138048F2AC02B0
S31502080AF0C2F20F2250540020D054704748F2A70081
S31502080B00C2F20F20012101707047D4D42DE9F043B7
S31502080B10ADF2045D81464FF47A70884604F03CFFD4
S31502080B2048F2AC06C2F20F2630464FF4007106F0C0
S31502080B3062FC48F2A8054AF63A20C2F20F250027B7
S31502080B40C0F208202F8000F027F94FF4FA7004F05B
S31502080B5023FF30464FF4007106F04DFC4BF6641045
S31502080B60C0F208202F8000F017F94FF47A7004F0CB
S31502080B7013FF307880B14AF6147248F2AC0341ACDE
S31502080B80C0F20822C2F20F2320464FF4807106F003
S31502080B908DFD2046FFF770FF48F2AC00C2F20F2027
S31502080BA04FF4007106F027FC4BF2BE70C0F2082023
S31502080BB02F8000F0F1F84AF658570126C0F20827A6
S31502080BC041AC00BF4FF47A7004F0E6FE20464FF4BB
S31502080BD080713A46334606F069FD2046FFF74CFF18
S31502080BE00136042EEED148F2AC06C2F20F26304682
S31502080BF04FF4007106F0FFFB4AF63A200024C0F2D1
S31502080C0008202C8000F0C8F84FF4FA7004F0C4FEED
S31502080C1030464FF4007106F0EEFB2C8000F0D4F853
S31502080C2030464FF4007106F0E6FB4BF66D10C0F243
S31502080C3008202C8000F0B0F84FF4FA7004F0ACFEED
S31502080C4030464FF4007106F0D6FB4AF64A60C0F207
S31502080C5008202C8000F0A0F84FF4FA7004F09CFEED
S31502080C6030464FF4007106F0C6FB2C804AF6F5248E
S31502080C704AF61162C0F2082441AEC0F20822304692
S31502080C804FF48071234606F011FD3046FFF7F4FE55
S31502080C904AF67171C0F2082120461E2200F004F9B4
S31502080CA078B14AF62F7241ACC0F2082220464FF4B8
S31502080CB080714FF0FF3306F0F9FC2046FFF7DCFEA1
S31502080CC059E04AF6BF304BF2B5514BF21602C0F262
S31502080CD00820C0F20821C0F2082200F0E3F94BF618
S31502080CE06B204BF2C051C0F20820C0F2082100F076
S31502080CF019FA00283FD04AF62930C0F2082000F037
S31502080D00FDFB41AC20464946424600F06FFC4BF6D5
S31502080D107E2201AEC0F2082230464FF48071234685
S31502080D2006F0C4FC3046FFF7A7FE4AF64E40C0F26C
S31502080D300820214600F0BAFC48F2AC044BF29107AF
S31502080D404BF2B8481426C2F20F24C0F20827C0F2A2
S31502080D50082800BF288848B12046394606F06CFCA8
S31502080D6048B92046414606F067FC40B9C82004F057
S31502080D7013FE013EEED10DF2045DBDE8F0834BF69B
S31502080D803D0248F2AC0301ACC0F20822C2F20F23BC
S31502080D9020464FF480718EE7B0B5044606F040FB54
S31502080DA048F2A705C2F20F250021C2B248F2F8504E
S31502080DB02970C2F20F20214602F002FA2878012889
S31502080DC018BFB0BDFEE7D4D42DE9F04F81B048F282
S31502080DD0AC04C2F20F2420464FF4007106F00BFB56
S31502080DE048F2A8064AF61E60C2F20F260027C0F28B
S31502080DF008203780FFF7D0FF4FF4FA7004F0CCFDD5
S31502080E004AF64761C0F20821204606F015FC68B189
S31502080E1048F2AC00C2F20F204FF4007106F0EBFA6A
S31502080E20378001B0BDE8F04F00F000BD48F2AC04CF
S31502080E304BF2AD1B4BF2C5594AF61E684AF6476A8B
S31502080E40C2F20F24C0F2082BC0F20829C0F2082801
S31502080E50C0F2082A002500BF2046594606F0ECFBD8
S31502080E60F0B92046494606F0E7FBC8B91E2D19D245
S31502080E706420013504F090FD20464FF4007106F017
S31502080E80BAFA40463780FFF787FF4FF4FA7004F044
S31502080E9083FD2046514606F0CFFB0028DCD0B7E793
S31502080EA0FEE700BFFEE7D4D42DE9F04FE1B048F2E1
S31502080EB0AC07C2F20F278846814638464FF40071BE
S31502080EC0144606F098FA48F2A8054AF61E60C2F2D7
S31502080ED00F250026C0F208202E80FFF75DFF4FF48B
S31502080EE0FA7004F059FD38464FF4007106F083FA99
S31502080EF04BF2C950C0F208202E80FFF74DFF4FF47F
S31502080F00FA7004F049FD38464FF4007106F073FA98
S31502080F104AF69230C0F208202E80FFF73DFF4FF4C2
S31502080F207A7004F039FD38464FF4007106F063FA18
S31502080F304BF2C77221AFC0F2082238464FF48071CD
S31502080F404B462E8006F0B2FB3846FFF795FD4BF668
S31502080F509A21C0F2082101A84A46434606F0D6FB62
S31502080F60002C52D048F2AC064BF6CA074AF6476935
S31502080F700025C2F20F260DF10408C0F20827C0F2B6
S31502080F8008290DF1840B4FF0000A00BF30464FF4D2
S31502080F90007106F030FA48F2A800C2F20F20058066
S31502080FA04046FFF7F9FE40F6B83004F0F5FC304645
S31502080FB0394606F041FB00283FD13046494606F03D
S31502080FC03BFB28BB4AF62C613046C0F2082106F0E4
S31502080FD033FB80BB4BF2AD113046C0F2082106F056
S31502080FE02BFBB8B90AF1010A4AF6A94258464FF448
S31502080FF08071C0F208225346009406F057FB584601
S31502081000FFF73AFD5445C1D115E04FF0FF3515E01B
S31502081010002512E04BF2D95248F2AC0321ACC0F2D9
S315020810200822C2F20F2320464FF4807106F03EFBD7
S315020810302046FFF721FD4FF0FF35002648F2AC04A3
S31502081040C2F20F2420464FF4007106F0D4F948F292
S31502081050A800C2F20F2006804AF69D30C0F2082088
S31502081060FFF79AFE4FF47A7004F096FC4AF6C241EC
S31502081070C0F20821204606F0DFFA10B14FF0FF351C
S315020810800CE048F2AC004BF6D601C2F20F20C0F2D1
S31502081090082106F0D1FA002818BF0025284661B0B3
S315020810A0BDE8F08F70B5C0B048F2B825034648F2DD
S315020810B0B02048F2B426C2F20F25C2F20F20C2F2BD
S315020810C00F262A604BF299026C4603603160C0F221
S315020810D0082220464FF4807106F0E8FA2046FFF708
S315020810E0CBFC33684BF2BE626C46C0F2082220463D
S315020810F04FF4807106F0DAFA2046FFF7BDFC28683D
S3150208110006F08EF94BF2AB026C460346C0F2082291
S3150208111020464FF4807106F0C9FA2046FFF7ACFC68
S3150208112040B070BD2DE9F047ADF5916D48F2AC06B9
S31502081130C2F20F268846814630464FF4007106F001
S315020811405AF948F2A80A4BF65C00C2F20F2A0024A2
S31502081150C0F20820AAF80040FFF71EFE4FF47A7084
S3150208116004F01AFC30464FF4007106F044F94AF6C8
S315020811703F20C0F20820AAF80040FFF70DFE4FF400
S315020811807A7004F009FC307850B148F2AC004BF2A0
S315020811901351C2F20F20C0F2082106F04DFA80B9A7
S315020811A04BF29E3248F2AC0362AEC0F20822C2F299
S315020811B00F2330464FF4807106F078FA3046FFF76F
S315020811C05BFC48F2AC06C2F20F2630464FF40071B9
S315020811D006F011F948F2B020C2F20F2002684AF668
S315020811E0B7010DF581670025C0F208213846AAF82D
S315020811F0005006F08BFA4AF6DE0262ACC0F208220A
S3150208120020464FF480713B4606F050FA2046FFF717
S3150208121033FC30464FF4007106F0EDF83846AAF86A
S315020812200050FFF7B9FD4FF47A7004F0B5FB4AF6A1
S315020812304761C0F20821304606F0FEF9002800F0A0
S31502081240148148F2AC06C2F20F2630464FF40071FA
S3150208125006F0D1F848F2B420C2F20F2002684BF227
S31502081260EC01E2ACC0F208212046AAF8005006F0CA
S315020812704DFA4AF6DE0262AFC0F2082238464FF449
S315020812808071234606F012FA3846FFF7F5FB304618
S315020812904FF4007106F0AFF82046AAF80050FFF79F
S315020812A07BFD4FF47A7004F077FB4AF64761C0F289
S315020812B00821304606F0C0F9002800F0DB8048F223
S315020812C0AC06C2F20F2630464FF4007106F093F8C8
S315020812D048F2B827C2F20F2738680025AAF8005044
S315020812E006F09EF84BF2B31262AC0346C0F208222D
S315020812F020464FF4807106F0D9F92046FFF7BCFB69
S315020813003A684BF68F0162ACC0F20821204606F015
S31502081310FDF94AF6DE0222AFC0F2082238464FF439
S315020813208071234606F0C2F93846FFF7A5FB304618
S315020813304FF4007106F05FF82046AAF80050FFF74E
S315020813402BFD4FF4FA6004F027FB4AF64761C0F218
S315020813500821304606F070F9002800F0958048F218
S31502081360AC04C2F20F2420464FF4007106F043F88B
S315020813704BF6A800C0F20820AAF80050FFF70CFDA9
S315020813804FF47A7004F008FB4AF64761C0F2082166
S31502081390204606F051F900287BD048F2AC06C2F284
S315020813A00F2630464FF4007106F025F84BF67412F4
S315020813B022AC0025C0F2082220464FF480714B4623
S315020813C0AAF80050CDF8008006F070F92046FFF71B
S315020813D053FB4BF6931102ACC0F2082120464A464B
S315020813E0434606F093F94AF6DE0222AFC0F2082215
S315020813F038464FF48071234606F058F93846FFF707
S315020814003BFB30464FF4007105F0F5FF2046AAF87B
S315020814100050FFF7C1FC4CF268574BF282754BF24B
S3150208142034494BF2AD18CFF6FF77C0F20825C0F261
S315020814300829C0F2082800BF3046294606F0FCF8FB
S315020814400446002818BF01243AD13046494606F018
S31502081450F3F8E0BB3046414606F0EEF8E0BB6420FE
S3150208146004F09AFA6437E7D125E04BF2C302C0F2D8
S31502081470082203E04BF66D02C0F2082248F2AC03DA
S31502081480C2F20F2362AC0DE04BF26372C0F208227D
S3150208149003E04AF67542C0F2082248F2AC03C2F2E9
S315020814A00F2322AC20464FF4807106F0FFF820463F
S315020814B0FFF7E2FA002420460DF5916DBDE8F087A4
S315020814C048F2AC20C2F20F2001210160F3E74BF289
S315020814D0C732C0F2082203E04BF29522C0F2082274
S315020814E048F2AC0322ADC2F20F2328464FF48071AC
S315020814F006F0DCF82846FFF7BFFADCE748F2AC212B
S31502081500C2F20F21096800296FD0F0B5ADF5017D49
S3150208151005464AF6522241ACC0F2082220464FF44A
S3150208152080712B4606F0C2F82046FFF7A5FA4BF261
S31502081530215141ACC0F2082120462A4606F0E6F8B7
S315020815404AF6DE0201ADC0F2082228464FF480713F
S31502081550234606F0ABF82846FFF78EFA48F2AC05A2
S31502081560C2F20F2528464FF4007105F044FF48F2EF
S31502081570A806C2F20F26002720463780FFF70CFC82
S315020815804FF4FA6004F008FA4AF64761C0F20821F5
S31502081590284606F051F8D8B948F2AC004BF2772142
S315020815A0C2F20F20C0F2082106F046F880B94BF2C3
S315020815B0BE4248F2AC0301ACC0F20822C2F20F23C3
S315020815C020464FF4807106F071F82046FFF754FA68
S315020815D048F2AC00C2F20F204FF4007105F00BFF7F
S315020815E037800DF5017DBDE8F04070472DE9F04FD3
S315020815F081B00E464BF64C319046C0F2082127229E
S31502081600044605F0FCFEB8F1010F41DB4BF2DD4A58
S31502081610371D4FF026090026C0F2082A4FF07D0B27
S3150208162026B12C2024F8090009F1010957F8042CDF
S3150208163004EB0900514606F069F8397800EB09050A
S31502081640012907D0D1B97A684AF687316019C0F2FA
S31502081650082110E039794AF68B0200294BF2C811A3
S31502081660C0F20822C0F2082118BF0A464AF69E416D
S315020816706019C0F2082106F049F80544013605F159
S315020816800109B04507F10C0724F805B002D0C7E7EF
S315020816904FF0260947F67D5104EB090024F8091094
S315020816A00021817001B0BDE8F08FD4D448F2AC2293
S315020816B0C2F20F221268002A00F09B802DE9F0413F
S315020816C0ADF5007D054608460C4605F0A9FE4BF623
S315020816D0AD1240AF0646C0F2082238464FF4807172
S315020816E02B4605F0E3FF3846FFF7C6F9B7B24AF6C6
S315020816F0563240AEC0F2082230464FF480713B465D
S3150208170005F0D4FF3046FFF7B7F94AF61F5140AE47
S31502081710C0F2082130462A463B4605F0F7FF4AF64C
S31502081720DE026D46C0F2082228464FF4807133461F
S3150208173005F0BCFF2846FFF79FF948F2AC05C2F24E
S315020817400F2528464FF4007105F055FE48F2A80801
S31502081750C2F20F2800273046A8F80070FFF71CFBD4
S315020817604FF47A7004F018F928463E2105F048FF2E
S3150208177050B348F2AC05C2F20F2528464FF4007161
S3150208178005F039FE2046A8F80070FFF705FB4EF66D
S3150208179078474AF6ED044AF6C236CFF6FF77C0F224
S315020817A00824C0F2082600BF2846214605F044FF51
S315020817B0D8B92846314605F03FFFB0B9642004F08F
S315020817C0EBF86437F0D110E04BF2B82248F2AC03DA
S315020817D06C46C0F20822C2F20F2320464FF48071EB
S315020817E005F064FF2046FFF747F90DF5007DBDE8D1
S315020817F0F041704780B548F2F8504BF66051C2F294
S315020818000F20C0F2082101F04DFB00B980BD4BF252
S3150208181093104BF221424AF61633C0F20820C0F260
S315020818200822C0F20823C92102F0E2FDF0B5C1B0D0
S3150208183048F2AC00C2F20F204FF4007105F0DBFD4E
S3150208184048F2A807C2F20F27002038804BF2BE7072
S31502081850C0F20820FFF7A0FA4AF658550124C0F24A
S31502081860082501AE4FF47A7004F096F830464FF424
S3150208187080712A46234605F019FF3046FFF7FCF821
S315020818800134042CEED148F2AC04C2F20F242046ED
S315020818904FF4007105F0AFFD4AF63A200025C0F272
S315020818A008203D80FFF778FA4FF4FA7004F074F8CE
S315020818B020464FF4007105F09EFD3D8041B0F0BD13
S315020818C0B0B548F2AC05C2F20F2528464FF40071AE
S315020818D005F091FD48F2A800C2F20F200024048008
S315020818E04AF6F900C0F20820FFF756FA4FF47A7062
S315020818F004F052F84BF6DE01C0F20821284605F03C
S315020819009BFEB0B148F2AC004BF2D871C2F20F207E
S31502081910C0F2082105F090FE50B948F2AC004BF22D
S31502081920E441C2F20F20C0F2082105F085FE10B18B
S3150208193001242046B0BD48F2AC004AF67B71C2F2D9
S315020819400F20C0F2082105F077FE0446002818BFCA
S315020819500124EEE72DE9F04381B000284FF0000795
S3150208196050D00E4600294DD048F2A809C2F20F29D6
S315020819700546B9F80000002844D048F2AC004AF6F9
S315020819806721C2F20F20C0F20821904605F054FEE4
S31502081990B8B32C2105F034FE98B34178222930D108
S315020819A00230222105F02CFE58B341782C2928D181
S315020819B08278A2F13001092928D8C11C002400BF67
S315020819C004EB840002EB400011F8012BA0F130046D
S315020819D0A2F130030A2BF3D32C2A12D1012C1ADBDB
S315020819E0A0B2B0424FF0000716D22846224605F0AA
S315020819F006FD2F550127B8F1000F18BFA8F80040B9
S31502081A000AE00027384601B0BDE8F0832C2A4FF0D9
S31502081A100007F7D100E0002748F2AC00C2F20F2017
S31502081A204FF4007105F0E7FC0020A9F80000E9E789
S31502081A304BF68830C0F2082080684FF44271C369B9
S31502081A4048F24050C2F20F20002218474BF688305F
S31502081A50C0F2082080684FF44271C36948F24050C8
S31502081A60C2F20F200122184710B54BF68834C0F28D
S31502081A700824616848F24050C2F20F2001F0E1FDE5
S31502081A8000B110BDA0684FF44271C36948F24050D4
S31502081A90C2F20F200122BDE81040184720B370B5E4
S31502081AA04AF208060446C2F20E2600BFE168254637
S31502081AB02468C80504D4A86810B1FFF7EFFFE968DF
S31502081AC0C80504D4286910B131688847E9688805C9
S31502081AD003D4286A08B13168884731682846884796
S31502081AE0002CE3D1BDE870407047D4D42DE9F0410B
S31502081AF00D464AF20401C2F20E2109680746282059
S31502081B001646884720B32821044605F074FC48F295
S31502081B10BC28C2F20F280021C8F800102FB1791E7E
S31502081B2011F8010F01382028FAD3204600F024F8CC
S31502081B30C0B107469EB1013F17F8010F411E202981
S31502081B40FAD360B12046FFF7A9FFC8F800700CE087
S31502081B5048F2BC20C2F20F200024046006E02DB130
S31502081B602F6003E02046FFF799FF00242046BDE8D0
S31502081B70F081D4D4D4D4D4D42DE9F04F81B02DED4C
S31502081B80048B84B0002900F031810E464AF6316191
S31502081B908046C0F208213046042205F03CFD18B3FF
S31502081BA04AF68B01C0F208213046052205F033FDBC
S31502081BB0F0B14BF2C811C0F208213046042205F0F2
S31502081BC02AFDD0B196F800A0BAF12D0F21D0BAF1AC
S31502081BD0220F19D14046314604B0BDEC048B01B040
S31502081BE0BDE8F04F00F058B90220C8F80C0009E029
S31502081BF00020C8F80C00751DF9E00120C8F80C0091
S31502081C00C8F81400351DF2E0AAF13000092800F2DE
S31502081C107F80BAF12D0F08BF0136354615F8010B3C
S31502081C209FED778B302818BF35462878A0F1310109
S31502081C3008291ED89FED740B9FED719B56EC109BDD
S31502081C4015F801BF303805F0B3F807460C4651ECD3
S31502081C50190B4A46334605F023FA3A46234604F058
S31502081C6027FE41EC190BABF130000A285846E7D398
S31502081C7004E0B0EE489A8346F0EE689ABBF12E0F5E
S31502081C8038D195F801B0ABF13000092850D89FED4C
S31502081C905E0B9FED5F1B9FED5A8BCDE900A805F100
S31502081CA002085AEC109B54EC117B00BFABF13000D2
S31502081CB005F07EF805460E4651EC190B4A46534680
S31502081CC005F0EEF92A46334604F0F2FD41EC190B0B
S31502081CD051EC180B3A46234604F0EAFD18F801BB04
S31502081CE041EC180BABF130000A28DFD3A8F1010545
S31502081CF0DDE900A84BF0200065281BD1294611F81A
S31502081D00010F2D2819D02B2808BFA91C012017E07E
S31502081D10BAF17B0F5BD0BAF15B0F62D1404631460E
S31502081D2004B0BDEC048B01B0BDE8F04F00F074B905
S31502081D309FED338B0120002216E0A91C4FF0FF30DD
S31502081D400B78A3F13002092A0CD8002202EB820290
S31502081D5003EB420211F8013F303AA3F130070A2F8A
S31502081D60F4D300E000220D468DED029B9DF80F107C
S31502081D7054EC196B81F080018DF80F1000FB02F00C
S31502081D80DDE90231BAF12D0F04BF1E460C4604F0F6
S31502081D90DFFF02460B4651EC180B04F089FD41ECB5
S31502081DA0110B9FED190B06F08FFF53EC102B3046E3
S31502081DB0214605F075F941EC100B88ED060B04F087
S31502081DC071FFC8F814000320C8F80C000FE040465B
S31502081DD0314604B0BDEC048B01B0BDE8F04F00F00B
S31502081DE081B948F2BC20C2F20F20066000252846B7
S31502081DF004B0BDEC048B01B0BDE8F08F00BF00BF94
S31502081E00000000000000000000000000000024405E
S31502081E10000000000000F0BF00210022FFF766BEA6
S31502081E20B0B50C4600F108052D682DB1286A214681
S31502081E3000F004F80028F7D12846B0BDF0B581B005
S31502081E400D46F8B115B304780746204605F0CAFBD5
S31502081E5029780646084605F0C5FB864210D10135A3
S31502081E60013700BFA4B117F8014B204605F0BAFBAB
S31502081E7015F8011B0646084605F0B4FB8642F1D062
S31502081E80351A06E0002D18BF012502E0012500E0FB
S31502081E900025284601B0F0BD2DE9F04F81B08946EC
S31502081EA019F8012B222A0FD104460120494600BF00
S31502081EB00A787AB1222A0DD05C2A4FF0010208BFAD
S31502081EC0022211440130F3E748F2BC20C2F20F2085
S31502081ED001608FE04AF20401C2F20E2109688847BE
S31502081EE0002800F0878080464FF00D0B09274FF037
S31502081EF0020A054699F800005C2809D0002800F075
S31502081F007B80222800F0788005F8010B49464DE0CF
S31502081F10494611F8010FA0F16E02072A07D8DFE831
S31502081F2002F0044343433C433F0C0A203CE0662844
S31502081F3039D0622808BF082036E009F1020000F00D
S31502081F4068F909F1050188B3064600F47C40B0F544
S31502081F505C4F2BD0B0F5584F2BD199F806005C2868
S31502081F6024D199F80700752820D109F1080000F054
S31502081F7050F9A0F5604111F5806F09F10B0115D3EF
S31502081F8000F4707266F39322022302F5803263F339
S31502081F909F10E8709609042017E005F801BB05E0D2
S31502081FA005F8017B02E00C2005F8010B01F1010995
S31502081FB0A0E7802E01D2012013E0B6F5006F02D207
S31502081FC00220534606E003205346B20963F39F16DE
S31502081FD0AE701646B20963F39F164FF0020A6E7088
S31502081FE016464BF67332C0F20822125C32432A7046
S31502081FF00544DBE700200BE000202870484610F86D
S31502082000011B22294FF0040118BF4846C4E90318E8
S3150208201001B0BDE8F08FD4D4F0B581B00A785B2A56
S315020820204ED1064605204C1CF06000BF14F8010B81
S31502082030411E2029FAD35D2848D04AF20407C2F283
S315020820400E27396828208847002842D028210546C5
S31502082050023C05F0D0F9B56014F8010F01382028C2
S31502082060FAD328462146FFF787FD70B3441E00BF00
S3150208207014F8010F411E2029FAD31BE039682820DB
S31502082080884710B32821064605F0B5F92E60756013
S3150208209014F8010F01382028FAD330462146FFF7F3
S315020820A06BFD90B1441E00BF14F8010F411E202992
S315020820B0FAD335462C28E1D05D280DD1013405E046
S315020820C048F2BC20C2F20F2001600024204601B06B
S315020820D0F0BD0024B460F9E748F2BC20C2F20F2032
S315020820E00460F2E72DE9F0410A787B2A40F07B800A
S315020820F0064606204D1CF06015F8010B411E2029E4
S31502082100FAD37D2875D04AF20407C2F20E27396837
S315020821102820884700286FD028210446023D05F06A
S315020821206AF9B46015F8010F01382028FAD3204657
S315020821302946FFF7B1FE00285AD0411E11F8010FB1
S3150208214001382028FAD32069206200202061087805
S315020821503A2848D111F8010F01382028FAD3204627
S31502082160FFF70AFD002843D0461E00BF16F8010FE6
S31502082170411E2029FAD34FF000082C283FD139688E
S3150208218028208847A0B32821054605F034F925609A
S315020821906C6000BF16F8010F01382028FAD32846CA
S315020821A03146FFF779FE18B3411E00BF11F8010F39
S315020821B001382028FAD32869C5F8108028620878D9
S315020821C03A2810D111F8010F01382028FAD32846E7
S315020821D0FFF7D2FC60B1461E16F8010F411E2029F0
S315020821E0FAD32C46C9E748F2BC20C2F20F20016096
S315020821F000252846BDE8F0810025B560F9E77D2867
S3150208220001D1751CF5E748F2BC20C2F20F20066020
S31502082210EEE7B0B50178A1F130020A2A02D26FF0D0
S315020822202F0C0CE0A1F14102062A02D26FF0360CFD
S3150208223005E0A1F16102052A4BD86FF0560C4378E6
S31502082240A3F130020A2A02D26FF02F0E0CE0A3F194
S315020822504102062A02D26FF0360E05E0A3F16102A8
S31502082260052A36D86FF0560E8278A2F130040A2C67
S3150208227002D26FF02F040CE0A2F14104062C02D21E
S315020822806FF0360405E0A2F16104052C21D86FF03F
S315020822905604C078A0F130050A2D02D26FF02F0538
S315020822A00CE0A0F14105062D02D26FF0360505E0D5
S315020822B0A0F16105052D0CD86FF0560573446144EB
S315020822C01B0103EB01212244114409012844084455
S315020822D0B0BD0020B0BD022818BF704748F2405072
S315020822E04BF6EC51C2F20F20C0F2082101F0A9B94F
S315020822F04BF68830C0F2082080684FF44371C369F0
S3150208230048F24050C2F20F20012218474BF6883095
S31502082310C0F2082080684FF44371C36948F24050FE
S31502082320C2F20F200022184770B548F2C02048F2C0
S315020823304854C2F20F20002548F2C126C2F20F24E1
S315020823404BF6EC310570C2F20F26C0F20821204680
S31502082350357001F063FB4EF64801C0F201012046D2
S315020823600022357001F0F3FD2046BDE8704001F009
S31502082370C8BD48F2C020C2F20F2001210170704781
S3150208238048F2C020C2F20F200023037048F2C12C83
S3150208239048F248504EF64801C2F20F2CC2F20F20FC
S315020823A0C0F2010100228CF8003001F0D0BD48F2DB
S315020823B0C020C2F20F200078012818BF704748F2E1
S315020823C0C12CC2F20F2C9CF800004AF22011431CC1
S315020823D0D8B2C0F2070100FB01F04CF6B361C0F2B5
S315020823E09571A0FB01014EF64800C0F2010000EB10
S315020823F0D10148F24850C2F20F2000228CF8003070
S3150208240001F0A5BD84B0FFF78FFF1020042100223A
S315020824104FF0000802F02EFC044610B12046FDF7E4
S31502082420D7FF03AD0A2702AE20462946002202F04C
S3150208243051FE012811D19DF80F000528F4D19DF807
S315020824400E00082806D0072801D00128ECD1FFF78C
S3150208245090FFE9E7FFF794FFE6E7002000214FF037
S31502082460FF323346CDF80880009703F0D4FD0128E1
S3150208247008D1029820B1012804D1FFF77AFF01E0BA
S31502082480FFF77EFFFFF793FF322003F085FACBE7CB
S3150208249048F284504BF63C41C2F20F20C0F20821A2
S315020824A000F000BDE0B170B5438804881C1B04F532
S315020824B0167C48F2B514C1F64E345CFB04FE4FEAAC
S315020824C09E1404EBDE7E4FF416740EFB04F4A4EBA2
S315020824D00C0404F25724A4B2944203D2002070BD1D
S315020824E000207047B2B100F1040C41F64F3E4FF49A
S315020824F0167400BF11F8015B9EB201330CF8065040
S315020825009DB2ED0805FB0EF5ED0C05FB1433013AF9
S315020825104380EFD1012070BDC0B1B0B544880388AD
S31502082520E41A04F5167C1FFA8CF44FEAD40E41F627
S315020825304F340EFB04F44FEAD44E4FF416740EFBD6
S3150208254014C4A4B2944203D20020B0BD002070473E
S31502082550D2B100F1040C41F64F3E4FF4167400BF97
S315020825609BB21CF80330013A01F8013B038803F1D8
S3150208257001039DB24FEAD50505FB0EF54FEAD5458F
S3150208258005FB14330380EBD10120B0BD0179012983
S3150208259031D0042918BF704710B548F2C42EC2F2CA
S315020825A00F2EBEF80240BEF8003048F2B511E31A03
S315020825B003F51673C1F64E3153FB01F18A1102EB8C
S315020825C0D1714FF4167C01FB1C3140F2572291421D
S315020825D008BF10BD611C8AB2D20841F64F3302FB0E
S315020825E003F2D20C02FB1C11007A0EEB04021071E4
S315020825F0AEF8021010BD48F2C220C2F20F20012125
S3150208260001707047F0B5ADF5177D48F2C420C2F2E5
S315020826100F204188008841F64F32081A00F51670D5
S3150208262081B2C90801FB02F1C90C4FF4167201FB0B
S315020826301207BDB2072D20D348F2C424C2F20F24D2
S3150208264001AE204631462A46FFF766FF4FF0FF30B5
S3150208265010FA87F000210722B31813F8077CAA2F6D
S3150208266003D113F8067CAA2F0BD001318BB29842FC
S3150208267002F10102F0D86088208000200DF5177D4E
S31502082680F0BDAA4208D948F2C420C2F20F2001A915
S315020826902A46FFF707FFF0E713F8020CFF28EAD1EC
S315020826A013F8010CFF28E6D113F8051C13F8040CDD
S315020826B013F8032C0844C0B2101AB0FA80F04FEA95
S315020826C0501019D148F29803C2F20F231A68571C00
S315020826D04AF20C02C2F20E2216681F6048F29403EE
S315020826E08E42C2F20F23196006D0116048F29C018D
S315020826F0C2F20F2101220A7061882180BEE7D4D472
S315020827002DE9F04381B00446FF208DF80300DCB1C1
S3150208271048F2845948F2C2274FF00008C2F20F293C
S315020827200DF10306C2F20F27002500BF48463146BF
S31502082730012200F045FD87F8008000BF387801289D
S31502082740FCD10135A542F1D301B0BDE8F083D4D45A
S3150208275082B0FFF789F9FFF79BFE102004210022B9
S315020827604FF0000A02F086FA044610B12046FDF739
S315020827702FFE48F2315748F2205948F2245B48F2B4
S31502082780285801ADC2F20F270126C2F20F29C2F25A
S315020827900F2BC2F20F2800BF20462946002202F05C
S315020827A099FC012809D19DF807000528F4D19DF85E
S315020827B006000B2808BF3E70EEE799F800000128CC
S315020827C00CD1DBF8000001306428CBF8000005D3F1
S315020827D0FFF73CF989F800A0CBF800A098F80000AA
S315020827E0012825D148F22C51C2F20F21086801307E
S315020827F0642808601CD348F23050C2F20F2090F8C1
S3150208280000A0BAF1010F02D1FFF772FD01E0FFF74E
S315020828107DFD48F230518AF00100C2F20F2108709C
S3150208282048F22C504FF0000AC2F20F20C0F800A05E
S315020828303878012822D10120FFF762FFFFF7E2FE6E
S31502082840E0B199F8000038B987F800A0FFF7F0F868
S3150208285089F80060CBF800A098F8000070B948F231
S315020828602C50C2F20F2088F80060C0F800A0FFF7CB
S315020828704DFD48F23050C2F20F2006700A2003F0CE
S315020828808BF889E7B0B582B048F26860C2F20F20C9
S31502082890016848F234550131016042F6DB004BF219
S315020828A0E4314BF67C33C2F20F250124C0F208202C
S315020828B0C0F20821C0F208234FF42052CDE90045A0
S315020828C002F0F9FE012804BF02B0B0BD2868002153
S315020828D002B0BDE8B04000F074B810B5044600F086
S315020828E073F82046BDE81040FDF7A2BCB0B582B029
S315020828F048F26860C2F20F20016848F23855013181
S31502082900016042F643104BF2F6514BF68033C2F29F
S315020829100F250124C0F20820C0F20821C0F20823BC
S315020829204FF42052CDE9004502F0C5FE012804BF46
S3150208293002B0B0BD2868002102B0BDE8B04000F080
S3150208294040B810B5044600F03FF82046BDE81040EE
S31502082950FDF7A4BDB0B582B048F26860C2F20F2096
S31502082960016848F23C550131016042F6AB104BF65C
S31502082970CB114BF68433C2F20F250424C0F2082089
S31502082980C0F20821C0F208234FF42052CDE90045CF
S3150208299002F091FE012804BF02B0B0BD28680021EA
S315020829A002B0BDE8B04000F00CB810B5044600F01D
S315020829B00BF82046BDE81040FDF7C6BE7047FFF784
S315020829C0FDBF00BE7047D4D4B0B548F26064C2F207
S315020829D00F2420684FF0FF3102F056FC012803D07D
S315020829E020680021FFF7EDFF48F26460C2F20F206B
S315020829F0017801B1B0BD01210170FFF7E0FF48F28D
S31502082A006865C2F20F2500BF286801382860F1D030
S31502082A10206800210022002302F07EF90128F3D063
S31502082A2020680021FFF7CDFFEEE780B548F268601F
S31502082A30C2F20F200021016048F26460C2F20F2040
S31502082A4048F26C620170C2F20F224FF480700121C3
S31502082A5002F041F948F26061C2F20F21086018B922
S31502082A6000200021FFF7ADFFFFF774FFFFF70AFF0B
S31502082A70FFF73CFF00F020F800F052F803F00BF8DD
S31502082A80002080BD48F2B463C2F20F23036048F205
S31502082A901470C2F20F20086080201060704748F652
S31502082AA01413C2F20F23036048F67410C2F20F2001
S31502082AB00860802010607047B0B582B048F268603E
S31502082AC0C2F20F20016848F674350131016042F6F8
S31502082AD00F304BF2DC714BF6F853C2F20F25012484
S31502082AE0C0F20820C0F20821C0F208234FF420528F
S31502082AF0CDE9004502F0DFFD012804BF02B0B0BDF2
S31502082B002868002102B0BDE8B040FFF75ABF10B5E9
S31502082B100446FFF759FF2046BDE81040FFF772BC8E
S31502082B20B0B582B048F26860C2F20F20016848F672
S31502082B3078350131016042F677304BF291714BF6E6
S31502082B40FC53C2F20F250124C0F20820C0F2082164
S31502082B50C0F208234FF42052CDE9004502F0ABFD3E
S31502082B60012804BF02B0B0BD2868002102B0BDE842
S31502082B70B040FFF726BF10B50446FFF725FF2046EB
S31502082B80BDE81040FFF7E4BD1EF0040F0CBFEFF3DB
S31502082B900880EFF309800149084700002F2C080234
S31502082BA00F4B1968EFF309821EF0100F08BF22EDCA
S31502082BB0108A22E9F04FEFF30B8342F8043D0A60CC
S31502082BC04FF0100080F31188BFF34F8FBFF36F8F5A
S31502082BD002F012FF4FF0000080F3118800F002B8ED
S31502082BE09C8C1922074801680A6802CA81F30B8875
S31502082BF0B2E8F04F1EF0100F08BFB2EC108A82F34B
S31502082C00098870479C8C192210B5EFF3118410209D
S31502082C1080F3118802F0C2FF30B14EF60450CEF2AC
S31502082C2000004FF08051016084F3118810BD80695D
S31502082C3010F8020C022808BFFFF7D4BF042838BFD1
S31502082C40704780B54AF608104BF2CD124AF6A933F8
S31502082C50C0F20820C0F20822C0F208234FF47E719F
S31502082C6001F0C6FB283140F8481D42F68D41C0F2F4
S31502082C7008214FF0807C22F00102C1636FF0020145
S31502082C800264C0F844C0C0E90913704700BE00BF19
S31502082C90FEE7D4D44EF62250CEF20000F02101709F
S31502082CA000F016F84EF63470CEF20000016841F0D4
S31502082CB04041016062B6BFF36F8FEFF3148C2CF0BC
S31502082CC0040C8CF31488BFF36F8F02DF00BEFDE796
S31502082CD048F62C40C2F20F20006844F6D351C1F2DE
S31502082CE06201A0FB01014FF0FF3000EB91110020B9
S31502082CF0B0EB116F18BF70474EF21002CEF2000207
S31502082D0051604EF62351CEF20001F0230B7090600B
S31502082D100720106070471021EFF3118081F31188A4
S31502082D2048F67C31C2F20F210A68531C0B605AB965
S31502082D3048F68031C2F20F2108604EF60450CEF2F0
S31502082D4000000068C00500D1704780B54AF6081031
S31502082D504AF62E124AF67F73C0F20820C0F20822FB
S31502082D60C0F2082340F2A44101F042FB48F67C3047
S31502082D70C2F20F20016859B10139016018BF7047C4
S31502082D8048F68030C2F20F20006880F31188704737
S31502082D9080B54AF608104BF6E9024AF69103C0F2E4
S31502082DA00820C0F20822C0F2082340F2AD4101F021
S31502082DB01FFB80B598B34EF6902EC4F2010E9EF80C
S31502082DC000100A0722D04EF2FA32C4F20102138820
S31502082DD04AF2025CCFF6FF7C0020A2F800C08EF809
S31502082DE0000043F425401080BFF34F8F30BFBFF376
S31502082DF06F8F62B6BFF36F8F72B61088A2F800C0E3
S31502082E0040F425408EF80010108080BDBFF34F8F26
S31502082E1030BFBFF36F8F62B6BFF36F8F72B680BDD6
S31502082E2080B572B602F096FC0120FFF7C2FF62B6C1
S31502082E30BDE8804002F0E8BC80B5EFF303801038A5
S31502082E4040B2002806D44EF20041CEF20001405CA0
S31502082E500F2817D94EF60C50CEF20000006840052E
S31502082E6058BF80BD4AF608104BF201624AF6C843BB
S31502082E70C0F20820C0F20822C0F2082340F22161FB
S31502082E8001F0B6FA4AF608104BF201624BF2E97300
S31502082E90C0F20820C0F20822C0F2082340F20F61ED
S31502082EA001F0A6FA2DE9F0470D460446087848F2DD
S31502082EB00001C4F2350101EB002060620020207097
S31502082EC025626969A162A969C4E90B01A078D5F8E6
S31502082ED01C8020F00300411CA170697811B940F0EA
S31502082EE00200A07095F90B604EF20019CEF20009A5
S31502082EF006F01F014FF0010C0CFA01F309F18001EB
S31502082F007009AA7A41F820304CF2003ABFF34F8F83
S31502082F10C4F2000ABFF36F8F5AF8260048F6DC3E61
S31502082F2020F480304AF826005AF82600100109F5DE
S31502082F304072C2F20F2E90554EF8264095F90500BA
S31502082F402E7900F01F030CFA03F3470941F82730DC
S31502082F50BFF34F8FBFF36F8F5AF8203023F48033B5
S31502082F604AF820305AF82030330113544EF82040DC
S31502082F7095F90700AB7900F01F060CFA06F6470921
S31502082F8041F82760BFF34F8FBFF36F8F5AF820605F
S31502082F901B0126F480364AF820605AF8206013543A
S31502082FA04EF8204095F909002B7A00F01F060CFA14
S31502082FB006F6470941F82760BFF34F8FBFF36F8FB5
S31502082FC05AF8201021F480314AF820105AF82010B5
S31502082FD0190111544EF82040EFF310868CF310882D
S31502082FE043F204022878C4F220024FF00041136823
S31502082FF021FA00F023EA0000106010681E20012161
S3150208300001F0F9F986F31088606A4FF480618160ED
S31502083010E869EB786A784FF48047467807EA83339B
S31502083020417B077806F0010662F3092301F00101E4
S3150208303043EAC63207F0030742EA415141EA076109
S31502083040626A01F58051D0F804C05161027802F033
S31502083050FE01022907D14FF60471CFF60071022A42
S3150208306008BF203101E0DCF80010626A0C23116106
S31502083070027BAF78817863F39F024FF44073022F85
S3150208308008BF4FF48073002F18BF1A4301F00101DD
S31502083090636A42EA0171D960626A002191612A78FB
S315020830A0092A04D8626A0023C1F61F735362827B17
S315020830B0B0F80F00636A42EA002041F60172C0F2D4
S315020830C01F02104018632046C4E90411C4E9061118
S315020830D000F09CF8B8F80A001021A081606AC9F6C7
S315020830E007518166206A90F905205AF8220002F0F3
S315020830F01F0120F480304AF822005AF822000120E3
S3150208310000FA01F309F5C0715209BFF35F8F41F85E
S31502083110223049F82230226A92F90B205AF82230D4
S3150208312023F480334AF822305AF8223002F01F0379
S3150208313000FA03F35209BFF35F8F41F8223049F8C8
S315020831402230226A92F907205AF8223023F4803371
S315020831504AF822305AF8223002F01F0300FA03F323
S315020831605209BFF35F8F41F8223049F82230226AAA
S3150208317092F909205AF8223023F480334AF8223089
S315020831805AF8223002F01F0398405209BFF35F8FA4
S3150208319041F8220049F82200606A40F21141C0F261
S315020831A001018160606A00BF017FC907FCD044F64D
S315020831B04211C5F2433100206160BDE8F087D4D4DC
S315020831C080B5D0F824E0DEF808C02CF44013CEF817
S315020831D00830D0F824C000BFDCF848305B00FBD5C5
S315020831E0DCF8083023F01003CCF80830D0F824C0F5
S315020831F09CF81C30DB06FBD4C0E90412DCF8080094
S3150208320040F010110020CCF8081080BD70B50446B5
S31502083210006AC5690020A060687C68B34EF2540053
S31502083220C4F20100017801F00F01022901D8012236
S315020832300BE0CA1E052A06D24BF62061C0F2082107
S3150208324051F8226003E00839102202FA01F64078A2
S3150208325000F00F0001F0C3F848F62C42C2F20F2222
S31502083260697C1268B0FBF6F002FB01F1B1FBF0F0E3
S31502083270012101EB9000A06070BDB0B5EFF30380A9
S315020832804FF0704101EB00604CF200318015C4F238
S315020832900001425822F480324250415848F6DC3145
S315020832A0C2F20F210C58206A01696069C1B9C0B11E
S315020832B0A07800F003012069022905D10088616A15
S315020832C020F4DC40486002E00078616A0871A07860
S315020832D0616900F00302881A21696061114421615B
S315020832E0A0B9616A02228D68A06862F3155510B109
S315020832F001F0C3F8616A8D60A06A0021216128B1D4
S3150208330020468022BDE8B04000F001B8B0BD2DE9E4
S31502083310F04385B08146C06A0DF1040830B105460E
S3150208332095E8D800C4468CE8D80000E04046D9F8AB
S3150208333020301B78816003600271D9F83010C160B1
S31502083340D9F828108847D9F82C0010B198E88E00C9
S315020833508EC005B0BDE8F08310B582B0EFF30380E6
S315020833604FF0704101EB00604CF200318015C4F257
S315020833700001425822F480324250415848F6DC3164
S31502083380C2F20F210C58A07800F00302606A022AE2
S3150208339003D101686FF35F2100E00178E0690191CA
S315020833A098B1A06901A904F02AF8A078A169E2698E
S315020833B000F003000144101AA161E0610ED1A06A6F
S315020833C060B120460021012203E0A06A30B12046FE
S315020833D0042202B0BDE81040FFF799BF02B010BD43
S315020833E010B54FF07041EFF3038001EB006148F628
S315020833F0DC328815C2F20F2210584FF6EF74426A71
S31502083400CFF6CF74936823409360826A0C161AB17A
S3150208341000210222FFF77BFF4CF20030C4F20000C3
S3150208342050F8241021F4803140F8241050F8240072
S3150208343010BD4FF07041EFF3038001EB006C48F6C4
S31502083440DC314FEAAC50C2F20F2108588178436A40
S3150208345001F00301022903D119686FF35F2100E025
S315020834601978B0B59A6C202404EAD24E102408259D
S3150208347014EA126405EA12627244224403D09D6C6D
S315020834802D0458BF40329D6E4FEA2C6445F0C8554C
S315020834909D66836A0BB1FFF73AFF4CF20030C4F21D
S315020834A0000050F8241021F4803140F8241050F816
S315020834B02400B0BD416002468868C0231061C8680E
S315020834C0C4F20203906100205061086803EB4010C1
S315020834D09060086803EB40104030D06091F9040010
S315020834E0002829D449794EF2001CCEF2000C0901B3
S315020834F000EB0C0383F8001348F6DC31C2F20F2105
S3150208350041F820204CF20031C4F2000151F8203073
S3150208351023F4803341F8203051F8201000F01F01BF
S315020835200123400903FA01F10CEB8003BFF35F8F15
S31502083530C3F880114CF8201045F24301C5F249211F
S315020835400020116070478068026892034EBF0C2003
S315020835508160002070478268002051607047844667
S31502083560C0E904130020CCF81820704701464068C9
S3150208357090F9040000280FD400F01F02012303FA71
S3150208358002F24EF280134009CEF2000343F82020DD
S31502083590BFF34F8FBFF36F8F002200200A60704778
S315020835A0B0B5EFF303804FF0704101EB00604CF2C7
S315020835B000318015C4F20001425822F4803242508A
S315020835C0415848F6DC31C2F20F210C58E06805680A
S315020835D0E80304D520464FF4803100F00BF835F4A1
S315020835E0403508BFB0BD2046294600F003F8E0681A
S315020835F00561B0BD2DE9F04184B004464069E8464C
S3150208360030B1034693E8E400C4468CE8E40000E0DF
S3150208361040466268B1F5803F126881600260A2691D
S31502083620C26002D1E168C96800E0002141602169EF
S315020836308847606910B198E88E008EC004B0BDE86C
S31502083640F08180B545F25422C5F24F02026008465F
S3150208365000F01CF9002080BD0146002200200A6005
S31502083660704780B5084600F011F9002080BD70B594
S3150208367086B001A80126049003A814460D46ADF8A3
S3150208368008100192ADF80C6000F060F948F6D830DF
S31502083690EFF3108286F31088C2F20F20016839B957
S315020836A040F61451C4F2400100230B7040230B70FC
S315020836B0036840F600010133036082F31088E203CF
S315020836C0C4F240014FEA152201D4EBB20CE001EB39
S315020836D08216EBB256F8235025F4803546F8235065
S315020836E024F4803546F8235001EB821141F8234031
S315020836F0EFF31081012282F31088026812B1026880
S31502083700013A0260006838B940F61450C4F2400023
S31502083710002202708022027081F31088002006B00F
S3150208372070BD0420C4F2400040EAD10020F01B001C
S3150208373000680023CFF6FF73C9B243EA1040C840B7
S3150208374000F0010100201170704780B56FF001008A
S3150208375000EAD113C8B2012140F20C0C01FA00FEAC
S31502083760C4F2400C19015CF80110012A4CEA031C48
S3150208377008D14FF4803202FA00F021EA000040EA4A
S315020837800E0207E04FF4803221EA0E0102FA00F037
S3150208379041EA00020020CCF8002080BD6FF03F000D
S315020837A000EA9100C9B200EB810040F60001C4F2BA
S315020837B040014058C0F34001002011707047C8B25A
S315020837C0012383409BB24FF4803C002A08BF0CFABF
S315020837D000F36FF0010000EAD11008220101C4F2D9
S315020837E0400200205350704780B56FF0010000EA8E
S315020837F0D11040F2000C0101C4F2400C5CF801E061
S3150208380003EA020040EA0E0062EA030202400020CE
S315020838104CF8012080BD6FF0010000EAD1100421A6
S315020838200001C4F240010858010C002011807047BB
S3150208383003EA020023EA02026FF0010303EAD11146
S315020838400C2340EA02420901C4F2400300205A50FE
S3150208385070476FF0010000EAD11004210001C4F29A
S315020838604001095800201180704703EA020023EA42
S3150208387002026FF0010303EAD111082340EA024269
S315020838800901C4F2400300205A50704770B5044635
S3150208389000F05CF848F6D83CEFF31080012181F37A
S315020838A01088C2F20F2CDCF8001039B940F6145110
S315020838B0C4F2400100220A7040220A70DCF80010A5
S315020838C00131CCF8001080F31088208810B340F636
S315020838D0000E0021C4F2400E606800EBC102928815
S315020838E050F83130100ADD03D2B20BD50EEB801533
S315020838F055F8226026F4803645F8226023F480368D
S3150208390045F822600EEB801040F8223020880131FB
S315020839108142E1D3EFF31081012080F31088DCF8AD
S31502083920000020B1DCF800000138CCF80000DCF811
S31502083930000038B940F61450C4F240000022027062
S315020839408022027081F3108870BDD4D42DE9F04F1D
S3150208395081B00446008800285CD042F240084EF640
S315020839604C4A4BF67C6BC4F220080026C4F2010AC4
S31502083970C0F2082B4FF00109002700BF60683BF828
S31502083980172000EBC600818891423CD100689AF85C
S31502083990001000F0B85009FA07F5B0F1807F05EA81
S315020839A0010015D150B9012000F0E2FD9AF8000095
S315020839B028438AF80000012000F0B1FD18F9170023
S315020839C0002820D418F8170040F0800015E000BF40
S315020839D050B1012000F0CCFD9AF80000A8438AF8FD
S315020839E00000012000F09BFD18F91700B0F1FF3F17
S315020839F009DC18F8170000F07F0008F81700C8203D
S31502083A00012100F0F8FC0137032FB7D120880136CF
S31502083A108642B1D301B0BDE8F08FD4D42DE9F04F78
S31502083A2081B00D46097C012204460D294FF000009B
S31502083A3002FA01F188BF0120E16065602074287CE2
S31502083A4042F20001C4F2320101EB0020A06068696B
S31502083A5043F610796061A8694FF00008C4F232098A
S31502083A60C4E90680D5F81CB0C9F80020EFF3108720
S31502083A7082F31088287C4FF0004A011F062943F278
S31502083A8010012AFA00F0C4F220016FEA00000A685F
S31502083A9038BF6FF000601040086008681E200121D8
S31502083AA000F0A9FC87F31088207B00070DD0EFF3FE
S31502083AB01080012181F31088A189B9F8F22022EA3F
S31502083AC00101A9F8F21080F31088A0684FF4254185
S31502083AD00160A068C0F82C80A068C0F83C80A06885
S31502083AE0C0F848802978287A0329A1684FEAC05085
S31502083AF06A6808BF00F58030C862A068C0F810A0DE
S31502083B00A068C0F814A0A068C0F818A0A068C0F8F9
S31502083B102480A068C0F82880DBF81800A168C8616C
S31502083B20DBF81C00A1680862A068511E8166A068BD
S31502083B3041662978DBF85090012938D029B9696895
S31502083B404FF0FF3202EB510108E0A268E968936E72
S31502083B5003F1010329B1994203D201394FF0000852
S31502083B6027E099424FF0000328BF0123526B67688A
S31502083B70B1FA81FC02F0100102F00C023F78043A15
S31502083B80B2FA82F25209032F40F200084FF0010EF0
S31502083B9088BF8EEA1112002AC0F2033808BF4FEA1C
S31502083BA05C13002B1CBF40F20008C0F202284FF03B
S31502083BB0FF31A2685165A26891652A78042A03D35F
S31502083BC0A268D165A2681166DBF85010C9BB9BF8DA
S31502083BD00010012916D12A789BF80110022A03D06F
S31502083BE0032A03D1032205E0092203E00922002958
S31502083BF008BF06220B0143EA8111114441EA090072
S31502083C0040F480799BF8021001291AD12A789BF888
S31502083C100310022A04D0032A05D14FF4403208E0E1
S31502083C204FF4102205E04FF41022002908BF4FF482
S31502083C30C0220B0543EA8151114441EA090040F0CA
S31502083C40807961680023C96901F1300291F84870E8
S31502083C50DF40FF070DD052F82370A0681E46042BDA
S31502083C6008BF0326013F032B08BF042600EB860084
S31502083C70C7640133062BE9D1287C0D2802D8A0682F
S31502083C8000214164A06800218163A068C0F88810F9
S31502083C90DBF8500040B99BF820009BF8211040033E
S31502083CA040EA417049EA00099BF84800A1680028E1
S31502083CB04FF4A00008BF4FF4AA0008642878012828
S31502083CC004D1A0680021C164A0680165A068C0F893
S31502083CD034909BF85510A2689BF854004901D36AA0
S31502083CE041EA00101843D062A06848F00301016354
S31502083CF0A06848F001010163D4E902124EF20010ED
S31502083D00CA6095F912304CF2003148F6DC32CEF22E
S31502083D100000C4F20001002BC2F20F221CD46F7CF1
S31502083D20C6183F0186F8007342F8234051F82370FB
S31502083D30012627F4803741F8237051F8237003F0DF
S31502083D401F075B0906FA07F700EB8306BFF35F8FC7
S31502083D50C6F8807140F823709BF92830002B1DD4D1
S31502083D609BF82270C6183F0186F8007342F8234072
S31502083D7051F82370012627F4803741F8237051F849
S31502083D80237003F01F075B0906FA07F700EB8306A1
S31502083D90BFF35F8FC6F8807140F823709BF929300C
S31502083DA0002B1DD49BF82370C6183F0186F80073B2
S31502083DB042F8234051F82370012627F4803741F848
S31502083DC0237051F8237003F01F075B0906FA07F7F9
S31502083DD000EB8306BFF35F8FC6F8807140F8237045
S31502083DE09BF92A30002B1DD49BF82470C6183F0174
S31502083DF086F8007342F8234051F82370012627F407
S31502083E00803741F8237051F8237003F01F075B09C6
S31502083E1006FA07F700EB8306BFF35F8FC6F88071D1
S31502083E2040F823709BF92B30002B1DD49BF8257084
S31502083E30C6183F0186F8007342F8234051F82370EA
S31502083E40012627F4803741F8237051F8237003F0CE
S31502083E501F075B0906FA07F700EB8306BFF35F8FB6
S31502083E60C6F8807140F823709BF92C30002B1DD4BC
S31502083E709BF82670C6183F0186F8007342F823405D
S31502083E8051F82370012627F4803741F8237051F838
S31502083E90237003F01F075B0906FA07F700EB830690
S31502083EA0BFF35F8FC6F8807140F823709BF92D30F7
S31502083EB0002B1DD49BF82770C6183F0186F800739D
S31502083EC042F8234051F8232022F4803241F8232075
S31502083ED051F8231003F01F01012202FA01F15A09CF
S31502083EE000EB8203BFF35F8FC3F8801140F82210FC
S31502083EF045F25401C0F247010020216001B0BDE835
S31502083F00F08FD0E9021200204A607047D0E9021207
S31502083F1000208A60704783684A1E9A6643681B783F
S31502083F203BB94FF0FF3C83680CEB51015965836836
S31502083F3099658168CB6ADB0707D14A6681684FF4BF
S31502083F40AA020A64D0E90201C160002070472DE97D
S31502083F50F04383B004460020164601904FF0FF3026
S31502083F6002F0030900906A4620463346884600F066
S31502083F7041F8A068056B019F97B931074FF0040114
S31502083F8058BF0221009AB30701D44B4604E000EB5E
S31502083F908100C264A0680123194300EB8100C26450
S31502083FA070060CD4022E38460FD138466FB16A46CF
S31502083FB020464146012300F01DF8019805E0A06855
S31502083FC0016C41F480010164384625F4403141EA26
S31502083FD00741B9F1010F18BF0D4625F04072B9F134
S31502083FE0000F18BF42EA0061A2680020116303B0FD
S31502083FF0BDE8F083B0B5D0F808C0DCF868E00EF189
S31502084000010E21B1714502D2481E1060B0BD71453C
S315020840104FF0000E28BF4FF0010EB1FA81F5DCF819
S315020840203410102404EA03134068D94001F010033F
S3150208403001F00C0100780439B1FA81F14909032823
S315020840404FF0010488BF84EA1311002908BF4FEA1A
S31502084050551EBEF1010F0CBF022003205060B0BDF1
S31502084060F0B583B0EFF303814FF070424CF20030A3
S3150208407002EB0161C4F200008A15135823F4803357
S315020840801350135848F6DC33C2F20F239F587A6846
S315020840901378012B40F0AE80D7E90235D2699D60CC
S315020840A0BB6800259D64BB680916DD64BB684EF2D1
S315020840B0802C1D6550F82130012523F4803340F801
S315020840C0213050F8213001F01F03CEF2000C05FA18
S315020840D003F34909BFF35F8F4CF8213092F8483051
S315020840E0D90717D092F92850002D13D450F8251065
S315020840F0012321F4803140F8251050F8251005F0E7
S315020841001F0103FA01F16B09BFF35F8F4CF8231005
S3150208411092F84830990715D592F92930002B11D40F
S3150208412050F82310012521F4803140F8231050F865
S31502084130231003F01F0105FA01F15B09BFF35F8F34
S315020841404CF8231092F92A30002B11D450F8231078
S31502084150012521F4803140F8231050F8231003F08A
S315020841601F0105FA01F15B09BFF35F8F4CF82310B3
S3150208417092F92B30002B11D450F82310012521F483
S31502084180803140F8231050F8231003F01F0105FA76
S3150208419001F15B09BFF35F8F4CF8231092F92C30BB
S315020841A0002B11D450F82310012521F4803140F850
S315020841B0231050F8231003F01F0105FA01F15B09D9
S315020841C0BFF35F8F4CF8231092F92D20002A11D4E1
S315020841D050F8221021F4803140F8221050F82200BB
S315020841E002F01F00012101FA00F05109BFF35F8FA7
S315020841F04CF821007869A8B1B8696D4628B102461B
S3150208420092E85800294658C100E028460021017163
S315020842108160F969016079698847B86910B195E8DA
S315020842200E000EC003B0F0BD2DE9F04383B0EFF3E4
S3150208423003804FF0704101EB00604CF200318015AB
S31502084240C4F200014258082522F4803242504158ED
S3150208425048F6DC31C2F20F210E58307BD6E9012925
S31502084260002818BF0C2519F805101078012806D160
S31502084270F42001F0F00109F8050009F80510706943
S31502084280C8B1B069E84630B1034693E89400C4461B
S315020842908CE8940000E04046890644BF002101717B
S315020842A0F169016071698847B06910B198E80E0032
S315020842B00EC019F8051001F00F0009F8050003B041
S315020842C0BDE8F0834EF22401C4F201018878098818
S315020842D0C1F30312A2F1080103293BD8DFE801F072
S315020842E0022C101E48F22001C2F20F2151F82000BA
S315020842F04AF6AB21CAF6AA21A0FB0101480830E01A
S3150208430048F22001C2F20F2151F820004AF6AB21E9
S31502084310CAF6AA21A0FB0101C80822E048F2200138
S31502084320C2F20F2151F820004AF6AB21CAF6AA2199
S31502084330A0FB0101080914E048F22001C2F20F218C
S3150208434051F820004AF6AB21CAF6AA21A0FB0101C0
S31502084350880806E048F22001C2F20F2151F820002F
S31502084360D04048F62C41C2F20F210860704770B55A
S3150208437048F2200046F6004141F20022C2F20F201E
S31502084380C0F2DC21C0F27A0243F2006C4FF4004319
S31502084390C0F26E1C4CF6002E44F2553448F2004523
S315020843A044F2006680E80E1040F6000143F6000269
S315020843B0C3F69A3EC1F2DE34C1F2D775C2F2C336EB
S315020843C0C2F6AF71C1F69C42C0E9043EC0E9066472
S315020843D0C0E908518262BDE87040FFF773BF48F230
S315020843E02001C2F20F2151F8200070477047D4D439
S315020843F000BE00BFFEE748F62C42C2F20F22126840
S3150208440041F20023C0F27A039A4201FB00F00FD36D
S3150208441040F6FF01C0F23D0111444DF68362C4F233
S315020844201B32A1FB0212110DA0FB0101E9B11FE02B
S315020844304CF6002348F63811C3F69A33C0F2410106
S31502084440B3FBF2F2884207D24FF47A7100FB01F00D
S31502084450B0FBF2F0800808E09200B0FBF2F0884266
S3150208446006D24FF47A7100FB01F028B100F005B8C4
S315020844704FF0FF3000F001B8704701380028FCD130
S315020844807047D4D4F0B581B04CF20015C4F20005D9
S315020844902868296A48F6843701EA00060024C2F227
S315020844A00F2700BF26FA04F0C00704D057F82410D5
S315020844B009B1204688470134152CF3D12E6100BF75
S315020844C0286A3042FCD101B0F0BDD4D470B54BF69F
S315020844D000614CF2003246F240034FF0000EC0F281
S315020844E00821C4F20002C4F200034FF0010C0020B6
S315020844F031F8104074B1BEEB942F42F8204009D12E
S31502084500650953F8256004F01F040CFA04F43443D1
S3150208451043F825400130102808BF70BDE8E701229C
S31502084520EFF3108182F3108848F61C42C2F20F227A
S3150208453032F8103023B132F81030013B22F810302D
S3150208454032F810208AB94EF2FA3CC4F2010C4CF247
S31502084550D002BCF80030C0F2082232F8100043F448
S31502084560254222EA0000ACF8000081F31088704761
S3150208457080B50122EFF3108182F3108848F61C42B7
S31502084580C2F20F2232F810308BB94EF2FA3C4CF2D4
S31502084590D003C4F2010CC0F20823BCF800E033F8D9
S315020845A0103043EA0E0343F42543ACF8003032F8E0
S315020845B01030013322F8103081F3108880BDD4D42C
S315020845C048F62841C2F20F210A681318B3F5204F9C
S315020845D00AD980B508487844016803F061F80C22C4
S315020845E042504FF0FF3080BD4AF22000C2F20E2040
S315020845F010440B60704700BF7684000000F006F88E
S31502084600FEF713FAFEE700BE7047D4D4B0B54EF6ED
S315020846100850CEF200004FF47001C0F8801040F244
S315020846200001C0F208214CF2040401600020C4F221
S315020846300104FDF750FEFFF79AFE206840F00100DC
S31502084640206000BF20680028FCD1012044F8040C31
S31502084650FDF741FE44F22000C2F20F2080F30A88D9
S31502084660002000F02FF8FFF72DFE0220FDF733FE9B
S31502084670012000F027F848F6B064C2F21924204651
S3150208468002F0EEFF204602F0FFFF4CF654204CF6ED
S315020846905421C0F20820C0F20821081A8410012CFD
S315020846A009DB4CF65425C0F2082500BF55F8040B61
S315020846B08047013CFAD1FFF709FF0020BDE8B04068
S315020846C0FFF794BEF0B581B04BF6A465C0F2082593
S315020846D02E68044676B16868071D00BF7879844259
S315020846E004D157E90101091A02F085FE013E07F1D4
S315020846F00C07F3D1AE6886B1E86800F1080500BF79
S315020847006879844205D155E902022968121A02F02B
S3150208471076FE013E05F11005F2D101B0F0BDD4D402
S31502084720B0B500F10805092D06D310F0070104D02B
S3150208473009398D4240F2BD80002501F00BF848F692
S315020847403040C2F20F2004682CB148F63440C2F257
S315020847500F20026826E048F64041C2F20F21CA1D20
S315020847604B0701F5202318BF22F0070148F6384205
S31502084770C2F20F220024C2E9001423F00702A2F1B2
S315020847800803036042E90244046848F640405A1A9C
S31502084790C2F21920C1E90042026048F63440C2F268
S315020847A00F200260012D6BDB954269D848F6384026
S315020847B0C2F20F20026848F6404CC2F20F2C62453C
S315020847C0C0F08B804FF6FF70C0F209000CEB0003B5
S315020847D09A4200F282805068A8420DD2106858B1F7
S315020847E060456BD311460246984267D85068A8427C
S315020847F006D2106820B1F3E748F63841C2F20F2113
S31502084800A2423DD0086800F10804644574D39C426C
S3150208481072D8106808605068A8427DD3431B112BD2
S315020848200DD302EB050C5FEA4C7040F08580CCF89C
S315020848300430556008685051C1F800C0506848F6FF
S315020848403445C2F20F2548F6404C2B68C2F2192CA1
S31502084850DCF800101B1A8B4240F000404FF00001B2
S315020848602B6038BFCCF80030C2E9001048F6444045
S31502084870C2F2192001680131016000F0C5FF04E0A7
S3150208488000F0C2FFFCF7C2F80024600704BF204606
S31502084890B0BD4BF2DF104AF6F4424AF66363C0F241
S315020848A00820C0F20822C0F2082340F25711FFF787
S315020848B09FFD20F0070000F110053EE74BF2DF10DE
S315020848C04AF6F4424BF6AF23C0F20820C0F2082299
S315020848D0C0F20823FB21FFF78BFD4BF2DF104AF6E5
S315020848E0F4424BF6AF23C0F20820C0F20822C0F207
S315020848F00823F521FFF77CFD4BF2DF104AF6F44256
S315020849004BF20513C0F20820C0F20822C0F20823AF
S3150208491040F20511FFF76CFD4BF2DF104AF6F4423E
S315020849204AF67523C0F20820C0F20822C0F208230C
S3150208493040F20D11FFF75CFD4BF2DF104AF6F44226
S315020849404BF21C23C0F20820C0F20822C0F2082348
S315020849504FF48B71FFF74CFDF0B581B0002841D0BA
S3150208496048F64046A0F10805C2F20F260446B542AB
S3150208497056D34FF6FF70C0F209003718BD424FD81A
S3150208498054F8040C00285BD52968002968D120F060
S31502084990004044F8040C00F0DDFE48F63440C2F24A
S315020849A00F2054F8041C026848F638430A44C2F237
S315020849B00F2302601A4600BF10461268AA42FBD3AA
S315020849C0984203D0B0425BD3B84259D84368C71855
S315020849D0AF4202D11944054641606B18934203D08F
S315020849E013460DE001B0F0BD48F63043C2F20F237C
S315020849F01B689A4204D052681144696001680B68C0
S31502084A00A8422B6018BF056048F64840C2F2192032
S31502084A1001680131016001B0BDE8F04000F0F4BE62
S31502084A204BF2DF104BF246424AF64113C0F2082017
S31502084A30C0F20822C0F208234FF4B571FFF7D8FC7A
S31502084A404BF2DF104BF246424BF2E623C0F2082045
S31502084A50C0F20822C0F2082340F26B11FFF7C8FC25
S31502084A604BF2DF104BF246424BF6FB03C0F208202C
S31502084A70C0F20822C0F208234FF4B671FFF7B8FC59
S31502084A804BF2DF104AF601524BF22063C0F20820BD
S31502084A90C0F20822C0F208234FF4FD71FFF7A8FC02
S31502084AA04FF0FF31024642F8081F0021C0E90322EF
S31502084AB0C0E90012704700210161704780B5D1F83C
S31502084AC000C01CF1010207D000F10802964652689E
S31502084AD013686345FAD903E0D0F810E0DEF804203B
S31502084AE04A609160C1F808E0CEF8041008610168CE
S31502084AF00131016080BDD0E90123016993604268F2
S31502084B005A604A68824201D182684A60002202617A
S31502084B10086801380860704770B500284BD004460B
S31502084B20C06BC0B30E46216CA0FB010199BBFEF710
S31502084B30F2F82068D4E90F12002502FB01030139B5
S31502084B4001FB0201A563C4E90103FF20E16084F8C1
S31502084B50440084F8450004F110004EB1FFF7A0FFA7
S31502084B6004F12400FFF79CFFFEF700F9012070BD4F
S31502084B7001680029F8D001F051F90028F4D04EF660
S31502084B800450CEF200004FF080510160BFF34F8F00
S31502084B90BFF36F8FE8E74BF2F1304BF61E024BF28A
S31502084BA0F363C0F20820C0F20822C0F208234FF4C9
S31502084BB0B671FFF71DFC4BF2F1304BF61E024BF2B3
S31502084BC0CF63C0F20820C0F20822C0F2082340F2DE
S31502084BD03711FFF70DFC10B582B05BB3D0B11C4696
S31502084BE001B9BAB901B1AAB148230193019B482B6D
S31502084BF030D1019B012384F84630002908BF22469A
S31502084C00C4E90F01204601212260FFF785FF2046ED
S31502084C1002B010BD4BF2F1304BF279124BF2375318
S31502084C20C0F20820C0F20822C0F208234FF4D87155
S31502084C30FFF7DEFB4BF2F1304BF279124AF67A5362
S31502084C40C0F20820C0F20822C0F208234FF4C2714B
S31502084C50FFF7CEFB4BF2F1304BF279124AF6C573E7
S31502084C60C0F20820C0F20822C0F208234FF4CB7122
S31502084C70FFF7BEFB70B5F0B104460D46A0FB010175
S31502084C80C9B905FB04F010F1490F14D84830FFF7EB
S31502084C9047FD064668B1002086F846003046002DD4
S31502084CA018BF4830306030460121C6E90F45FFF784
S31502084CB033FF304670BD4BF2F1304AF688524BF25A
S31502084CC03753C0F20820C0F20822C0F2082340F285
S31502084CD02A21FFF78DFBB0B582B060B10D4681423D
S31502084CE009D81446002100222346FFF774FF2046FE
S31502084CF0A56302B0B0BD4BF2F1304BF259324AF617
S31502084D009C53C0F20820C0F20822C0F208234FF4CE
S31502084D105E71FFF76DFBD4D42DE9F04F85B00028FC
S31502084D20049200F09D8099461546044619B9206CEE
S31502084D30002840F0C580B9F1020F03D1E06B0128C3
S31502084D4040F0AE80019101F053F910B9002D40F000
S31502084D509780FDF7E0FFA06BB9F1020F59D0E16B1E
S31502084D60884256D304F11007012002AE4FF0000B19
S31502084D7004AD00BF0499002966D0C00702D03046A8
S31502084D8001F0D2F8FDF7F2FF00F0E4FCFDF7C3FFED
S31502084D9094F84400FF2808BF84F844B094F8450004
S31502084DA0FF2808BF84F845B0FDF7E0FF30462946DC
S31502084DB001F0C7F800284AD1FDF7ADFFD4F838A0AC
S31502084DC0D4F83C80FDF7D2FFC24515D1049938467E
S31502084DD000F0C6FF204600F0B5F800F015FD80B9D0
S31502084DE04EF60450CEF200004FF080510160BFF338
S31502084DF04F8FBFF36F8F04E0204600F0A3F800F050
S31502084E0003FDFDF788FFA06BE16B88424FF00000B7
S31502084E10B0D2019920464A4600F062F854F8240FA7
S31502084E2070B1204600F0FAFF50B14EF60450CEF2A9
S31502084E3000004FF080510160BFF34F8FBFF36F8FB1
S31502084E40FDF794FF012008E0FDF790FF04E02046F5
S31502084E5000F078F800F0D8FC002005B0BDE8F08F25
S31502084E604BF2F1304AF6D0324BF2CF63C0F2082049
S31502084E70C0F20822C0F2082340F2B631FFF7B8FAA8
S31502084E804BF2F1304AF6D0324AF6E233C0F2082043
S31502084E90C0F20822C0F2082340F2BB31FFF7A8FA93
S31502084EA04BF2F1304AF6D0324AF6A453C0F2082041
S31502084EB0C0F20822C0F208234FF46E71FFF798FA7F
S31502084EC04BF2F1304AF6D0324BF6D713C0F208202D
S31502084ED0C0F20822C0F2082340F2B731FFF788FA77
S31502084EE070B5866B036C044643B31546CAB1E068CF
S31502084EF01A4602F084FAE168206C2268091A91427D
S31502084F00E16003D2A16840420844E060A81EB0FAF4
S31502084F1080F040093146002E18BF01210840361A92
S31502084F200CE060681A4602F06AFAD4E90101226CBA
S31502084F3010448842606001D320686060701CA063D8
S31502084F4070BDD4D4F0B581B00446FDF7E4FE94F9F9
S31502084F504560012E0EDB04F1240500BF286848B11E
S31502084F60284600F05BFF08B101F03BF870B2013E3B
S31502084F700128F3DCFF2684F84560FDF7F7FEFDF706
S31502084F80CAFE94F94470012F0EDB04F1100500BF26
S31502084F90286848B1284600F041FF08B101F021F817
S31502084FA078B2013F0128F3DC84F8446001B0BDE819
S31502084FB0F040FDF7DBBE2DE9F04700284AD01E4631
S31502084FC0904605460F4611B9286C002862D1022E72
S31502084FD002D1E86B01284DD1FDF72EFFEFF31189B7
S31502084FE0102080F31188A86B022E04D0E96B884240
S31502084FF001D300202AE095F94540A86B2846394690
S3150208500032465FFA84FAFFF76BFFBAF1FF0F0BD04D
S3150208501000F0A0FEA04218D9BAF17F0F4AD00AF1D1
S31502085020010085F8450010E055F8240F68B12846B6
S3150208503000F0F4FE0146B8F1000F4FF0010018BF68
S31502085040002903D0C8F8000000E0012089F311887E
S31502085050BDE8F0874BF2F1304AF635424BF2CF63A0
S31502085060C0F20820C0F20822C0F208234FF4926167
S31502085070FFF7BEF94BF2F1304AF635424AF6A45327
S31502085080C0F20820C0F20822C0F2082340F2924178
S31502085090FFF7AEF94BF2F1304AF635424BF6D71323
S315020850A0C0F20820C0F20822C0F2082340F2914159
S315020850B0FFF79EF94BF2F1304AF635424BF250436E
S315020850C0C0F20820C0F20822C0F2082340F21E519C
S315020850D0FFF78EF92DE9F04F83B00028029200F00F
S315020850E0A28016468946044619B9206C002840F063
S315020850F0BA8000F07DFF10B9002E40F0A480FDF7BB
S315020851000AFED4F838A0BAF1000F28D0226C52B1A0
S31502085110D4E902011144E160814224BF2168E160B9
S31502085120484602F06CF954F8100FAAF10101A1627F
S3150208513070B1204600F072FE50B14EF60450CEF21F
S3150208514000004FF080510160BFF34F8FBFF36F8F9E
S315020851500124FDF70BFE204603B0BDE8F08F04F1EB
S31502085160240801206F464FF0000B02AE029900296F
S3150208517055D0C00702D0384600F0D6FEFDF7F6FD38
S3150208518000F0E8FAFDF7C7FD94F84400FF2808BFC7
S3150208519084F844B094F84500FF2808BF84F845B05F
S315020851A0FDF7E4FD3846314600F0CBFE60B12046F5
S315020851B0FFF7C8FE00F028FBFDF7ADFDA56BFDF76E
S315020851C0D5FD75B322E000BFFDF7A5FDA56BFDF77A
S315020851D0CDFD2DB12046FFF7B5FE00F015FB15E013
S315020851E00299404600F0BCFD2046FFF7ABFE00F0F0
S315020851F00BFB58B94EF60450CEF200004FF0805120
S315020852000160BFF34F8FBFF36F8F00BFFDF783FDBA
S31502085210D4F838A00020BAF1000FA7D076E7002408
S3150208522097E7002497E74BF2F1304BF27D324AF6C4
S315020852303D53C0F20820C0F20822C0F2082340F209
S31502085240E951FFF7D5F84BF2F1304BF27D324AF6C7
S31502085250E233C0F20820C0F20822C0F2082340F264
S31502085260F251FFF7C5F84BF2F1304BF27D324BF2B1
S315020852704253C0F20820C0F20822C0F2082340F2C4
S31502085280ED51FFF7B5F8D4D42DE9F04F83B00028D5
S31502085290029100F08E800446006C002840F0998046
S315020852A00D4600F0A5FE10B9002D40F0A280FDF7CC
S315020852B032FDA16BD1B154F8100F0139A16270B158
S315020852C0204600F0ABFD50B14EF60450CEF2000077
S315020852D04FF080510160BFF34F8FBFF36F8F0124E8
S315020852E0FDF744FD204603B0BDE8F08F4EF604599B
S315020852F004F1240801206E464FF0000B02AFCEF2ED
S3150208530000094FF0805A00BF029900294DD0C00704
S3150208531002D0304600F008FEFDF728FD00F01AFA22
S31502085320FDF7F9FC94F84400FF2808BF84F844B056
S3150208533094F84500FF2808BF84F845B0FDF716FD26
S315020853403046394600F0FDFD60B12046FFF7FAFD0A
S3150208535000F05AFAFDF7DFFCA56BFDF707FD35B33A
S315020853601CE000BFFDF7D7FCA56BFDF7FFFC2DB1CE
S315020853702046FFF7E7FD00F047FA0FE0029940469C
S3150208538000F0EEFC2046FFF7DDFD00F03DFA28B9F5
S31502085390C9F800A0BFF34F8FBFF36F8FFDF7BBFCB1
S315020853A0A16B00200029AFD085E7002498E70024E6
S315020853B098E74BF2F1304AF6E0724AF63D53C0F2EC
S315020853C00820C0F20822C0F2082340F28261FFF7E1
S315020853D00FF84BF2F1304AF6E0724BF62113C0F29F
S315020853E00820C0F20822C0F2082340F28661FEF7BE
S315020853F0FFFF4BF2F1304AF6E0724AF6E233C0F2A8
S315020854000820C0F20822C0F2082340F28B61FEF798
S31502085410EFFFD4D4B0B500B3D1B148F64C4E4FF035
S31502085420000CC2F2192E0022002300BF0EEB020462
S315020854306568A8420DD023B92368002B18BF6446B5
S3150208544023460832502AF1D1002B18BFC3E90010AF
S31502085450B0BD2346C3E90010B0BD4BF2F1304AF69F
S31502085460A3024BF22D73C0F20820C0F20822C0F242
S31502085470082340F6C931FEF7BBFF70B515460E463E
S315020854800446FDF748FC94F84400FF2804BF0020B0
S3150208549084F8440094F84500FF2804BF002084F8E5
S315020854A04500FDF763FCA06B28B904F124003146D8
S315020854B02A4600F076FC2046BDE87040FFF742BD5A
S315020854C02DE9F04786B0DDF83C9007460020B9F191
S315020854D0000F049026D0109CA4B36020059005986E
S315020854E060283FD105980E46DDF838A0204660218F
S315020854F09846154601F07FFF022084F85D0004A84D
S31502085500C4F83090CDE900A0384631462A464346CB
